:100000000C9496030C94DA030C94DA030C94DA0340
:100010000C94DA030C94DA030C94DA030C94DA03EC
:100020000C94DA030C94DA030C94660B0C94DA0348
:100030000C947F190C94DA030C94DA030C94DA0311
:100040000C94DA030C94DA030C94DA030C94DA03BC
:100050000C94DA030C94E4190C94DA030C94DA038C
:100060000C94DA030C94DA030C94DA030C94DA039C
:100070000C94DA030C94DA030C94DA030C94DA038C
:100080000C94DA030C94DA030C94DA030C94DA037C
:100090000C94DA030C94DA030C94DA030C94DA036C
:1000A0000C94DA030C94DA030C94DA030000F1A147
:1000B0000000000000000000000000000000000040
:1000C0000000000000000000000000000000000030
:1000D0000000000000000000000000000000000020
:1000E0000000000000000000000000000000000010
:1000F0000000000000000000000000000000000000
:1001000000000000000000000000000000000000EF
:1001100000000000000000000000000000000000DF
:100120000000000000000000635F590462535C0699
:100130005809566157085554385D5E605B075A058B
:100140000A0025303862003A200025303258000A73
:10015000722F632030313233343536370A00626F04
:10016000756E6365213A20253032580A005B735D55
:10017000004B6579626F6172642073746172742ED2
:100180000A0055534220636F6E6669677572656435
:100190002E0A005B575D005B535D005B525D005BA8
:1001A000445D005B435D0005010906A101050719D7
:1001B000E029E71500250195087501810295017573
:1001C0000881010508190129059505750191029518
:1001D00001750391010507190029FF150026FF008D
:1001E000950675088100C005010980A101850216E8
:1001F000010026B7001A01002AB700751095018189
:1002000000C0050C0901A1018503160100269C020E
:100210001A01002A9C02751095018100C00631FF69
:100220000974A1010975150026FF00952075088144
:10023000020976150026FF00952075089102C0126C
:1002400001100100000008EDFE19B90100010200D3
:100250000109025B00030100A03209040000010350
:10026000010100092111010001224000070581035D
:1002700008000A090401000103000000092111011E
:1002800000012236000705820308000A0904020063
:1002900002030000000921110100012222000705CC
:1002A0008303200001070503032000010403090460
:1002B0000E0374002E006D002E006B002E00000057
:1002C0001E0348004900440020004C006900620001
:1002D000650072006100740069006F006E0000002C
:1002E0000A002530325820006B6579626F617264B4
:1002F0005F7265706F72743A20004C45443A202555
:100300003032580A00646F6E652E0A00626F6F7497
:100310006D61676963207363616E3A202E2E2E2013
:10032000003F0074696D65725F72656164333228E5
:10033000293A202530346C580A006B6579626F6168
:1003400072645F69646C653A2025580A006B6579B0
:10035000626F6172645F70726F746F636F6C3A206A
:1003600025580A00686F73745F6B6579626F6172FC
:10037000645F6C65647328293A2025580A000A09CD
:100380002D20537461747573202D0A004743433A3E
:1003900020342E332E33204156522D4C4942433ABD
:1003A00020312E362E37204156525F415243483A73
:1003B00020617672350A004F5054494F4E533A200F
:1003C0004C55464120424F4F544D414749432045EB
:1003D000585452414B455920434F4E534F4C4520A2
:1003E000434F4D4D414E4420343039360A0042557A
:1003F000494C443A20646138633531382D64697260
:100400007479202831373A33333A343520417567CF
:100410002020342032303136290A005649443A200F
:1004200030784645454428742E6D2E6B2E29205079
:1004300049443A2030784239313928484944204CDF
:10044000696265726174696F6E29205645523A205F
:100450003078303030310A00444553433A20742E0E
:100460006D2E6B2E206B6579626F617264206669F8
:10047000726D7761726520666F7220484944204C26
:10048000696265726174696F6E0A000A092D2056EF
:10049000657273696F6E202D0A000A6D6F75736542
:1004A0003A206F66660A000A6D6F7573653A206FB1
:1004B0006E0A000A6B6579626F6172643A206F663A
:1004C000660A000A6B6579626F6172643A206F6E2A
:1004D0000A000A6D61747269783A206F66660A00D4
:1004E0000A6D61747269783A206F6E0A000A646559
:1004F0006275673A206F6E0A000A64656275673A32
:10050000206F66660A000A0A626F6F746C6F61641E
:1005100065722E2E2E2000433E20006565636F6EAF
:100520006669673A0A000A002575002E6E6B726FC5
:100530003A20000A002575002E737761705F6261B2
:10054000636B736C6173685F6261636B737061632B
:10055000653A20000A002575002E737761705F6789
:10056000726176655F6573633A20000A0025750045
:100570002E6E6F5F6775693A20000A002575002EA0
:10058000737761705F72616C745F726775693A202E
:10059000000A002575002E737761705F6C616C74C2
:1005A0005F6C6775693A20000A002575002E63614B
:1005B00070736C6F636B5F746F5F636F6E74726F79
:1005C0006C3A20000A002575002E737761705F6316
:1005D0006F6E74726F6C5F636170736C6F636B3A94
:1005E00020000A0025303258006B65796D61705F1C
:1005F000636F6E6669672E7261773A20000A002584
:1006000075002E6D6F7573653A20000A0025750020
:100610002E6B6579626F6172643A20000A0025755D
:10062000002E6D61747269783A20000A0025750009
:100630002E656E61626C653A20000A0025303258E2
:100640000064656275675F636F6E6669672E7261CD
:10065000773A20000A0025750064656661756C7440
:100660005F6C617965723A20000A092D204D61673F
:100670006963202D0A643A0964656275670A783AED
:10068000096465627567206D61747269780A6B3AF6
:10069000096465627567206B6579626F6172640ACF
:1006A0006D3A096465627567206D6F7573650A76CA
:1006B0003A0976657273696F6E0A733A09737461E9
:1006C0007475730A633A09636F6E736F6C65206D9E
:1006D0006F64650A302D343A096C61796572302D8A
:1006E00034284631302D4634290A506175733A0951
:1006F000626F6F746C6F616465720A653A09656553
:1007000070726F6D0A000A092D20436F6E736F6C53
:1007100065202D0A4553432F713A09717569740A92
:10072000004C25640A00433E20003F0011241FBEF8
:10073000CFEFDAE0DEBFCDBF04B603FE24C0809168
:10074000400290914102A0914202B0914302875031
:10075000904BA740B04BB9F4109240021092410266
:10076000109242021092430214BE84B7877F84BF66
:1007700088E10FB6F89480936000109260000FBE7D
:10078000E0E0F8E3099511E0A0E0B1E0E4E9F2E48B
:1007900002C005900D92A439B107D9F712E0A4E97F
:1007A000B1E001C01D92A034B107E1F70E94A0079B
:1007B0000C9448210C940000FF93EF93E091940176
:1007C000F0919501309709F00995EF91FF91089507
:1007D000FC018591803011F0EFDFFBCF0895FF27FA
:1007E000E0E230E247FF0CC0419597FF09C0EDE21F
:1007F0006095709580959095611D711D811D911D6D
:1008000027FF02C0219530E350E2AA27660F771F29
:10081000881F991FAA1FA41710F0A41B63955A954F
:10082000A9F7AA3008F0A95FA05DAF93F395611511
:1008300071058105910541F7ED3211F4EF93F395C0
:10084000F21718F43F93F395FBCF8F91B5DFFA952C
:10085000E1F70895E991F9918591803021F0853291
:1008600019F0AADFF9CF089520E0E89455915532A8
:10087000C1F3503311F4689455915A3348F45053EE
:1008800090F3220F022E220F220F200D250FF4CFFE
:100890000EF4219589919991533619F3533729F123
:1008A000533559F1BC0188279927E8945C3621F427
:1008B0008991999168945591543639F446EF7EF0B8
:1008C00077FF0DC08FEF9FEF0AC055374AE039F030
:1008D000583540E121F0523642E009F00895FF9387
:1008E000EF937DDFEF91FF91B7CFFF93EF93FC0183
:1008F00081918030B9F360DFFBCFFF93EF9368DF26
:10090000F1CFDF93CF93CDB7DEB72596A3DFCF919D
:10091000DF910895E72FF0E070E0882359F493E029
:10092000EE0FFF1F9A95E1F7E60FF71FE055FF4F17
:100930008491089583E0EE0FFF1F8A95E1F7E60F9B
:10094000F71FE055FF4F8491089590E0805C904040
:100950008230910540F4FC01EE0FFF1FE455FF4F7C
:100960002591349102C020E030E0C9010895CF9371
:10097000DF9385B7806885BF85B7806885BF84B100
:100980008E6084B985B1817F85B9C2E3D1E0A0E0F2
:10099000B0E0FD01E45BFE4F0190F081E02D999104
:1009A0009095808189238083FD01E059FE4F01905D
:1009B000F081E02D8081892380831296A432B105D5
:1009C00041F78C9180668C9385B1806685B980E013
:1009D00090E0FC01EA56FE4F1082FC01E855FE4F04
:1009E0001082019682319105A1F7DF91CF91089590
:1009F000E6E9F1E0E80FF11D808108954F925F92E2
:100A00006F927F928F929F92AF92BF92CF92DF921E
:100A1000EF92FF920F931F93CF93DF93CC24DD24AB
:100A20004AE1442E31E0632E712C2EE5822E21E026
:100A3000922E98E0592EBC2C85B1817FF601EC5B9B
:100A4000FE4F9081892B85B9842D8A95F1F7C301DA
:100A50000C2C02C0880F991F0A94E2F7A82EC8EA4E
:100A6000D1E08EE0E82E81E0F82E02E311E048812B
:100A7000242F30E00B2C02C0359527950A94E2F71D
:100A80002170307050E0D701ED91FC918081F80128
:100A90009081892309F051E05217F9F04A254883E3
:100AA000909100019923B9F080912B0280FF13C02F
:100AB00000D000D0EDB7FEB73196ADB7BEB71296F5
:100AC0009C928E921197928313820E9481040F90C0
:100AD0000F900F900F90509200012196E2E0F0E00D
:100AE000EE0EFF1E0F5F1F4FF1E0CA3BDF0709F05C
:100AF000BECF0894C11CD11C88E0C816D10409F0EF
:100B00009ACF809100018823C9F081508093000121
:100B1000882329F080EA9FE00197F1F70FC020E0D9
:100B200030E0F901EA56FE4FD901A855BE4F8C912D
:100B300080832F5F3F4F2231310599F781E0DF91AC
:100B4000CF911F910F91FF90EF90DF90CF90BF90CA
:100B5000AF909F908F907F906F905F904F9008958F
:100B6000EF92FF920F931F93CF93DF938FE491E067
:100B70000E94E803C0E0D0E05AE4E52E51E0F52EF3
:100B800002E411E000D000D0ADB7BEB71296FC92DF
:100B9000EE9211971496DC93CE9313970E948104E2
:100BA0000F900F900F900F9087E491E00E94E80360
:100BB000FE01EA56FE4F80810E941F1900D000D02E
:100BC000EDB7FEB73196ADB7BEB712961C930E9334
:100BD0001197828313820E9481040F900F900F90CF
:100BE0000F9080E491E00E94E8032196C231D10584
:100BF00049F6DF91CF911F910F91FF90EF900895EB
:100C000094B1906E94B981FF02C02D9801C02D9AC5
:100C100082FF02C02E9801C02E9A80FF02C02F9A38
:100C200008952F9808958091BE018F5F8093BE0133
:100C300062E30E940B219923A9F51092BE018091D5
:100C4000BC01882379F180913602843049F5909176
:100C5000E9008091EC0080FD02C080E001C080E8E6
:100C60009F70982B83E08093E9008091EB0080FFD8
:100C700014C08091EE0087FD03C00FC01092F100F8
:100C80008091E80085FDFACF8091E80080FF05C0E3
:100C90008091E8008E778093E8009F709093E90040
:100CA0001092BC0108958091BB0108950895682FAA
:100CB0008FB7F8941092BC018FBF809136028430B8
:100CC00011F08FEF08959091E9008091EC0080FD84
:100CD00002C080E001C080E8392F3F70382B83E0EC
:100CE0008093E9008091EB0080FF43C08091EE008B
:100CF00087FF3FC08091BD01882321F08091E800EB
:100D000085FF37C01092BD0125E040EA5FE012C0C8
:100D100080913602843069F58091EB0085FD29C011
:100D2000222321F481E08093BD0123C02150CA0118
:100D30000197F1F78091E80085FFEACF6093F10019
:100D40008091E80085FD0AC08091E80080FFFCCF1B
:100D50008091E8008E778093E80006C09FB7F894F2
:100D600081E08093BC019FBF3F703093E90080E039
:100D700008953F703093E9008FEF08950895089526
:100D80000895DF93CF9300D00F92CDB7DEB7AC01BB
:100D900080913602843029F582E08093E9002FEFBC
:100DA00095ED05C0892F8A95F1F7222329F08091CE
:100DB000E800215085FFF6CF8091E80085FF11C043
:100DC0005B834A8383E08983CE01019663E070E010
:100DD00040E050E00E94060A8091E8008E77809300
:100DE000E8000F900F900F90CF91DF910895DF935F
:100DF000CF9300D00F92CDB7DEB7AC018091360211
:100E0000843029F582E08093E9002FEF95ED05C04D
:100E1000892F8A95F1F7222329F08091E80021504B
:100E200085FFF6CF8091E80085FF11C05B834A8380
:100E300082E08983CE01019663E070E040E050E0FB
:100E40000E94060A8091E8008E778093E8000F9058
:100E50000F900F90CF91DF9108950F931F93182F4C
:100E6000092F80913602843061F581E08093E9009A
:100E70009FEF25ED05C0822F8A95F1F7992329F080
:100E80008091E800915085FFF6CF8091E80085FFC2
:100E900018C0812F902F68E070E040E050E00E9481
:100EA000060A8091E8008E778093E800AFEBB1E00E
:100EB000212F302FC901FC0188E001900D92815053
:100EC000E1F71F910F9108950E94A81908950E94BB
:100ED000571980913402882331F00E94AB1988237E
:100EE00011F00E941B09089583E991E00E94E80334
:100EF0000E946407089587E991E00E94E8030E9438
:100F0000C00608958BE991E00E94E80308958FE9F7
:100F100091E00E94E80310923502089583EA91E07F
:100F20000E94E80380913502882349F40E94E60A72
:100F30000E94470B8091E20084608093E200089554
:100F400084B7877F84BF88E10FB6F89480936000F0
:100F5000109260000FBE80E090E020E80FB6F89499
:100F600020936100809361000FBE0E94BE060E9424
:100F70004C0E0E94E60A0E94470B8091E2008460BA
:100F80008093E20087E596E00E941A19789402C0E7
:100F90000E94A30D809136028430D1F782E891E05F
:100FA0000E94E8030E940D0F82E091E00E94B90DBB
:100FB00081E791E00E94E8030E94BF0606C08DE62B
:100FC00091E00E94E8030E94670780913602853015
:100FD000B1F30E94520E0E94A30DF7CF8091380208
:100FE000833009F455C0843030F4813071F08230A0
:100FF00009F0AFC096C08A3009F483C08B3009F481
:1010000068C0893009F0A5C020C080913702813ABC
:1010100009F09FC08091E800877F8093E80080916D
:101020003B0290913C02892B21F48FEB91E068E028
:1010300003C080E090E060E070E00E9431098091A0
:10104000E8008B778093E800089580913702813221
:1010500009F07FC080913B0290913C02892B09F0FE
:1010600078C08091E800877F8093E80005C0809178
:101070003602882309F46DC08091E80082FFF7CF23
:101080008091F1008093BB018091E8008B771CC0B8
:1010900080913702813A09F05CC080913B029091C7
:1010A0003C02892B09F055C08091E800877F80932E
:1010B000E8008091E80080FFFCCF809101018093DF
:1010C000F1008091E8008E778093E8000E94930AF7
:1010D0000895809137028132E1F580913B02909131
:1010E0003C02892BB1F58091E800877F8093E8006E
:1010F0000E94930A80913902809301010E946F0F30
:10110000089580913702813221F58091E800877F30
:101110008093E8000E94930A80913A028093BA017A
:10112000089580913702813AA1F48091E800877F89
:101130008093E8008091E80080FFFCCF8091BA01A5
:101140008093F1008091E8008E778093E8000E9400
:10115000930A089581E061EC42E00E945B0A82E01C
:1011600061EC42E00E945B0A83E061EC42E20E9493
:101170005B0A0895DA019330C1F0943030F4913075
:1011800051F0923009F04FC00BC0913221F19232F0
:1011900009F049C032C0EFE3F2E022E130E047C09D
:1011A000E1E5F2E02BE530E042C0813051F08130E2
:1011B00020F0823009F037C008C0ECEAF2E08491F8
:1011C00007C0E0EBF2E0849103C0E0ECF2E0849130
:1011D000282F30E02CC0613041F0613018F06230CF
:1011E00011F508C0E3E6F2E002C0ECE7F2E029E026
:1011F00030E01DC0E5E9F2E0FACF613051F0613036
:1012000018F0623081F40AC0E7EAF1E020E430E04F
:101210000EC0E7EEF1E026E330E009C0EDE1F2E0D8
:1012200022E230E004C0E0E0F0E020E030E0ED93C6
:10123000FC93C901089580E189BD82E189BD09B4AB
:1012400000FEFDCF8091D8008F7D8093D8008091E3
:10125000E00082608093E0008091E00081FDFCCF9F
:1012600008959C0140913D0250913E024617570758
:1012700018F4F90190E043C06115710511F0AB015C
:10128000F8CF8091E8008E778093E80040E050E04E
:10129000F0CF80913602882309F447C0853009F4E5
:1012A00046C08091E80083FD44C08091E80082FD43
:1012B00036C08091E80080FF22C08091F3009091B9
:1012C000F200782F60E0292F30E0262B372B07C063
:1012D00081918093F100415050402F5F3F4F411565
:1012E000510519F02830310598F390E02830310588
:1012F00009F491E08091E8008E778093E800411531
:10130000510539F6992329F60AC0809136028823BF
:1013100061F0853061F08091E80083FD0AC0809122
:10132000E80082FFF2CF80E0089582E0089583E034
:10133000089581E008959C0140913D0250913E0244
:101340004617570718F4F90190E044C0611571057C
:1013500011F0AB01F8CF8091E8008E778093E80020
:1013600040E050E0F0CF80913602882309F448C075
:10137000853009F447C08091E80083FD45C0809125
:10138000E80082FD37C08091E80080FF23C0809193
:10139000F3009091F200782F60E0292F30E0262BA7
:1013A000372B08C084918093F10031964150504012
:1013B0002F5F3F4F4115510519F02830310590F34B
:1013C00090E02830310509F491E08091E8008E77B3
:1013D0008093E8004115510531F6992321F60AC0A2
:1013E00080913602882361F0853061F08091E800B9
:1013F00083FD0AC08091E80082FFF2CF80E008956B
:1014000082E0089583E0089581E00895BF92CF922D
:10141000DF92EF92FF920F931F93CF93DF93182FDA
:10142000092F7B016A010E94B40AB82E8823C1F5F6
:10143000812F902F9C01E901C114D10439F0F601EC
:1014400080819181E81AF90AC80FD91F00E010E0E5
:1014500024C08091E80085FD18C08091E8008E7757
:101460008093E8000E94A30DC114D10449F0F60155
:1014700080819181800F911F9183808385E011C0CD
:101480000E94B40A882349F00CC089918093F1002E
:101490000894E108F1080F5F1F4FE114F104C9F649
:1014A0008B2DDF91CF911F910F91FF90EF90DF90E7
:1014B000CF90BF900895382F282F2EC0822F8F7085
:1014C0008093E900231721F4762F942F50E006C073
:1014D0007091EC009091ED005091F00091FF1BC0D5
:1014E0008091EB008E7F8093EB008091ED008D7FEB
:1014F0008093ED008091EB0081608093EB0070930E
:10150000EC009093ED005093F0008091EE0087FD89
:1015100002C080E008952F5F273080F23F70309343
:10152000E90081E008958091370288239CF404C08B
:10153000809136028823B9F08091E80082FFF8CFCD
:101540008091E8008B778093E800089580913602BF
:10155000882349F08091E80080FFF8CF8091E8006F
:101560008E778093E80008954091E4005091E50063
:1015700024E68091EC0080FF24C08091E80080FD8B
:101580001EC080913602882311F482E008958530D0
:1015900011F483E008958091EB0085FF02C081E0A3
:1015A00008958091E4009091E5008417950709F370
:1015B000222311F484E008952150AC01DACF80E0B9
:1015C00008958091E80082FFDCCFF9CF0E94590B8B
:1015D0000E94610BE0EEF0E0808181608083A8EDE5
:1015E000B0E08C918F778C9319BCE7EDF0E08081AF
:1015F0008E7F80838C918F7E8C931092350208951C
:10160000EF92FF920F931F930E94590B0E94610B60
:1016100008ED10E0F80180818F77808380818068F9
:10162000808380818F7D808319BC10923602109256
:101630003202109234021092330280EEE82EF12C26
:10164000F70180818B7F8083F801808181608083B6
:1016500080E060E042E00E945B0AE1EEF0E0808121
:101660008E7F8083E2EEF0E08081816080838081E4
:1016700088608083F70180818E7F8083F80180817C
:10168000806180831F910F91FF90EF900895E8EDA6
:10169000F0E080818F7E8083E7EDF0E080818160E3
:1016A000808384E082BF81E0809335020E94000B3A
:1016B0000895E8EDF0E080818E7F80831092E20053
:1016C00008951092DA001092E10008951F920F928F
:1016D0000FB60F9211242F933F934F935F936F9305
:1016E0007F938F939F93AF93BF93EF93FF938091DB
:1016F000E10082FF0BC08091E20082FF07C0809171
:10170000E1008B7F8093E1000E9413068091DA0054
:1017100080FF1FC08091D80080FF1BC08091DA003D
:101720008E7F8093DA008091D90080FF0DC080E128
:1017300089BD82E189BD09B400FEFDCF81E08093BF
:1017400036020E948E0705C019BC109236020E9414
:1017500087078091E10080FF19C08091E20080FF3F
:1017600015C08091E2008E7F8093E2008091E200BC
:1017700080618093E2008091D80080628093D800DD
:1017800019BC85E0809336020E947B078091E100BE
:1017900084FF30C08091E20084FF2CC080E189BDCD
:1017A00082E189BD09B400FEFDCF8091D8008F7D14
:1017B0008093D8008091E1008F7E8093E10080913A
:1017C000E2008F7E8093E2008091E200816080934E
:1017D000E20080913202882311F084E007C08091FA
:1017E000E30087FD02C081E001C083E08093360200
:1017F0000E9474078091E10083FF24C08091E20081
:1018000083FF20C08091E100877F8093E10082E028
:1018100080933602109232028091E1008E7F809395
:10182000E1008091E2008E7F8093E2008091E200EF
:1018300080618093E20080E060E042E00E945B0A09
:101840000E948207FF91EF91BF91AF919F918F917D
:101850007F916F915F914F913F912F910F900FBEAC
:101860000F901F9018951F93DF93CF93CDB7DEB7DE
:10187000AC970FB6F894DEBF0FBECDBFE7E3F2E042
:101880008091F100819322E0EF33F207C9F70E94C3
:10189000EE078091E80083FF3EC1809137023091CE
:1018A0003802353009F487C0363040F43130C9F1A0
:1018B000313070F0333009F02EC133C0383009F4C4
:1018C000F9C0393009F409C1363009F024C197C094
:1018D000803821F0823809F01EC108C0909133028F
:1018E00080913402882399F0926011C080913B026C
:1018F0008F708093E9008091EB0090E025E0969551
:1019000087952A95E1F7982F91701092E9008091C0
:10191000E800877F8093E8009093F1001092F10037
:10192000D4C0882319F0823009F0F5C090E08F719F
:101930009070009721F0029709F0EDC00CC08091E3
:101940003902813009F0E7C010923402333069F572
:10195000809334022AC080913902882331F5209186
:101960003B022F7009F4D7C02093E9008091EB006F
:1019700080FF1BC0333021F48091EB00806213C0E4
:101980008091EB0080618093EB0081E090E002C0E9
:10199000880F991F2A95E2F78093EA001092EA00D7
:1019A0008091EB0088608093EB001092E9008091B9
:1019B000E800877F8DC0882309F0ADC010913902FF
:1019C0001F778091E3008078812B8093E3008091E2
:1019D000E800877F8093E8000E94930A8091E800E6
:1019E00080FFFCCF8091E30080688093E3001123A7
:1019F00011F482E001C083E0809336028CC08058ED
:101A0000823008F088C08091390290913A0223E038
:101A10008C3D920709F034C083E08C838AE28B838B
:101A20007FB7F894DE0115966EE040E050E011E2D9
:101A3000E62FF0E010935700849140FF03C0829599
:101A40008F706F5F8F70282F30E08A3018F0C901D7
:101A5000C79602C0C901C0968D939D934F5F5F4F9B
:101A60004431510529F77FBF8091E800877F80933B
:101A7000E800CE0103966AE270E00E94310914C0CA
:101A800060913B02AE014F5F5F4F0E94BA08BC01FC
:101A9000009709F440C08091E800877F8093E800B8
:101AA00089819A810E949B098091E8008B778093BD
:101AB000E80031C0803879F58091E800877F809315
:101AC000E800809132028093F1008091E8008E77E7
:101AD0008093E8000E94930A1EC08823E1F490914D
:101AE00039029230C0F48091E800877F8093E8004B
:101AF000909332020E94930A80913202882331F43B
:101B00008091E30087FD02C081E001C084E0809302
:101B100036020E94AA088091E80083FF0AC08091E3
:101B2000E800877F8093E8008091EB0080628093DB
:101B3000EB00AC960FB6F894DEBF0FBECDBFCF91D1
:101B4000DF911F9108951F9380913602882379F0C9
:101B50001091E9008091EC001092E9008091E8007A
:101B600083FF02C00E94330C1F701093E9001F9185
:101B700008959093CC018093CB010895E091CB011F
:101B8000F091CC01309711F480E008950190F0813C
:101B9000E02D099508959C018091C9019091CA0199
:101BA0002817390779F03093CA012093C901E091D1
:101BB000CB01F091CC01309729F00680F781E02D20
:101BC000C901099508959C018091C7019091C801B0
:101BD0002817390779F03093C8012093C701E091A5
:101BE000CB01F091CC01309729F00084F185E02DF4
:101BF000C90109950895EF92FF920F931F93CF9318
:101C0000DF93182F092FE091CB01F091CC01309791
:101C1000D9F10280F381E02D099580912B0282FF9A
:101C200033C080FF04C088EE92E00E94E803812F59
:101C3000902F9C01E90110E082EEE82E82E0F82E60
:101C400080912B0280FF14C000D000D0EDB7FEB70A
:101C50003196ADB7BEB71296FC92EE92119788817D
:101C6000828313820E9481040F900F900F900F9037
:101C70001F5F2196183021F780912B0280FF04C04E
:101C800080EE92E00E94E803DF91CF911F910F91C7
:101C9000FF90EF90089508950E944B0E08950E94C2
:101CA00000060895BF92CF92DF92EF92FF920F93BA
:101CB0001F93DF93CF93CDB7DEB72A970FB6F89473
:101CC000DEBF0FBECDBF0E94FE04EE24FF24BE2C5B
:101CD0008E2D0E94F804C82EF701E253FE4FD080EB
:101CE000D82609F446C080912B0281FF02C00E94D1
:101CF000B00500E010E0ED2DF0E0CF01002E02C0B5
:101D0000959587950A94E2F780FF2EC00E94C91925
:101D10000983BA826C2D70E0002E02C0759567951C
:101D20000A94E2F7617070706B8381609D838C838D
:101D3000402F5B2D782F8D810E94851249815A8119
:101D40006B817C818D810E944219F701E253FE4F25
:101D500081E090E0002E02C0880F991F0A94E2F7FC
:101D60002081282720831DC00F5F1F4F08301105D9
:101D700021F60894E11CF11C82E1E816F10409F057
:101D8000A6CF0E94C9192FEF2E832F83188681605A
:101D9000782F9A8789874FEF5FEF60E08A850E94EE
:101DA00085120E9441191091CD010E94BE0D181795
:101DB00021F10E94BE0D282F8093CD0180912B022E
:101DC00082FF17C080FF15C000D000D0EDB7FEB76E
:101DD00031968AEF92E0ADB7BEB712969C938E9380
:101DE0001197228313820E9481040F900F900F900D
:101DF0000F908091CD010E9454192A960FB6F89445
:101E0000DEBF0FBECDBFCF91DF911F910F91FF902D
:101E1000EF90DF90CF90BF9008950E94C0190E946C
:101E2000B7040E94B71B0895DF93CF9300D000D072
:101E30000F92CDB7DEB70F900F900F900F900F90CD
:101E4000CF91DF910895DF93CF9300D000D000D0E1
:101E5000CDB7DEB726960FB6F894DEBF0FBECDBF66
:101E6000CF91DF9108950E943D17482F892F8295C9
:101E70008F70282F30E02C3031054CF42A3031059A
:101E80006CF42250304022303105C0F407C02C30B1
:101E9000310551F02F30310589F406C0403E10F075
:101EA000403F61F481E008959F70892F90E023E026
:101EB000969587952A95E1F78170089580E00895B9
:101EC0000E94DA180E94A9180E94F21880E090E09F
:101ED0000E94CB0D80E090E00E94E30D08950E94E7
:101EE000CA180E94600F0895882321F00E94C0182C
:101EF0000E94F2180895882321F00E94BA180E94C7
:101F0000F2180895282F882339F18450813A20F45B
:101F1000822F0E9496180DC0822F805E883060F458
:101F2000277081E090E001C0880F2A95EAF70E94AF
:101F3000C0180E94F2180895822F855A833028F421
:101F400080E090E00E94CB0D0895285A253120F4BE
:101F500080E090E00E94E30D08951F93182F8823DE
:101F600009F4A7C08450813A50F4812F0E94C22006
:101F7000882309F09EC0812F0E9478180DC0812F00
:101F8000805E883060F4177081E090E001C0880FB7
:101F90001A95EAF70E94BA180E94F2188AC0812F97
:101FA000855A8330A0F4153A19F481E890E00CC00A
:101FB000163A19F482E890E007C0173A19F080E069
:101FC00090E002C083E890E00E94CB0D72C0812FA8
:101FD000885A853108F06DC0183A19F482EE90E005
:101FE00066C0193A19F489EE90E061C01A3A19F402
:101FF0008AEE90E05CC01B3A19F485EB90E057C084
:102000001C3A19F486EB90E052C01D3A19F483EBA8
:1020100090E04DC01E3A19F484EB90E048C01F3A9E
:1020200019F487EB90E043C0113B19F48CEC90E07D
:102030003EC0103B19F48DEC90E039C0123B19F40E
:1020400083E891E034C0133B19F48AE891E02FC093
:10205000143B19F482E991E02AC0153B19F484E994
:1020600091E025C0163B19F481E292E020C0173BB5
:1020700019F483E292E01BC0183B19F484E292E069
:1020800016C0193B19F485E292E011C01A3B19F40D
:1020900086E292E00CC01B3B19F487E292E007C095
:1020A0001C3B19F080E090E002C08AE292E00E94BE
:1020B000E30D1F910895AF92BF92CF92DF92EF92FE
:1020C000FF920F931F93DF93CF93CDB7DEB72A977D
:1020D0000FB6F894DEBF0FBECDBF5C01DE011196D6
:1020E000FC0185E001900D928150E1F70B81F50133
:1020F000F580F2944FE0F422DE011696FE0131964F
:1021000085E001900D928150E1F73E812F81898514
:102110009A85892B09F4E8C12F3F09F0BCC13F3FE4
:1021200009F0B9C1E1C18D2D8F70222311F4182F50
:1021300003C0182F1295107F002349F0112309F4D2
:1021400084C1812F0E94CD180E94F2187EC18C2D6F
:102150000E94820F112309F4C7C1812F0E94D31856
:102160000E94F218C1C18D2D8F70203211F4182FEA
:1021700003C0182F1295107FCC2021F0F1E0CF166C
:1021800029F514C0002349F0FF2051F121E0F21697
:1021900039F5812F0E94DD18A7C1FF2021F081E0D1
:1021A000F81609F4A1C10E94E01823C1002349F0E8
:1021B000E5E0EF1508F498C10E94B718812381F07B
:1021C00018C1F4E0FF1508F48FC113C1002361F0BA
:1021D000FF2031F0F501858180FF37C18F70858345
:1021E000812F0E947B0F80C1FF2009F402C138C1FA
:1021F0008D2D86958695837090E0009721F001974C
:1022000009F072C10AC0002319F0C601937002C020
:1022100080E090E00E94CB0D67C1002319F0C60159
:10222000937002C080E090E00E94E30D5DC18D2DAF
:10223000837009F05EC0002309F056C12C2D229551
:1022400026952770220F220F8C2D8F70E82EFF24E9
:1022500000E010E0022E04C0EE0CFF1C001F111F56
:102260000A94D2F7C4FC05C060E070E080E090E022
:102270000FC06FE070E080E090E004C0660F771F51
:10228000881F991F2A95D2F7609570958095909533
:10229000D694D694F3E0DF224D2D50E04130510525
:1022A000A9F0423051051CF4452B49F01DC14230C4
:1022B000510589F04330510509F016C113C06E294C
:1022C0007F29802B912B0E9453180EC16E297F29E4
:1022D000802B912B0BC06E297F29802B912B0E9484
:1022E000421802C10E945318C801B7010E94641825
:1022F000FBC090E0002311F496958795817009F456
:10230000F3C02C2D229526952770220F220F8C2D9D
:102310008F70E82EFF2400E010E0022E04C0EE0CC7
:10232000FF1C001F111F0A94D2F7C4FC05C060E017
:1023300070E080E090E00FC06FE070E080E090E03F
:1023400004C0660F771F881F991F2A95D2F76095E2
:10235000709580959095D694D69423E0D2224D2DF9
:1023600050E041305105A9F0423051051CF4452B95
:1023700049F0BAC04230510589F04330510509F0A7
:10238000B3C013C06E297F29802B912B0E94A41704
:10239000ABC06E297F29802B912B0BC06E297F2922
:1023A000802B912B0E9493179FC00E94A417C801F5
:1023B000B7010E94B51798C080EFC816F1F08C15D0
:1023C00020F0E0EECE16E8F109C0F2EFCF1651F1A1
:1023D000CF1618F123EFC216A1F529C01C2D1F70CE
:1023E0008D2D8F71002319F00E940218F9CE0E94E2
:1023F000E217812F0E94740F77C0002329F084E038
:102400008F1508F471C004C0E5E0EF1508F46CC046
:102410008D2D8F710E94C61767C08D2D8F7100237F
:1024200029F119C08D2D8F710023A9F01FC0002341
:1024300029F08D2D8F710E941E1856C00E942E18F3
:1024400053C0002359F0FF2021F08C2D0E94AD0FC6
:102450004BC08D2D8F710E94021846C0FF2021F0C5
:102460008C2D0E94820F40C08D2D8F710E94E2172B
:102470003BC0FFE0DF22C5016C2D4D2D0E942D1ABF
:102480000E94A71631C02FE0D222C5016C2D4D2D20
:102490000E94301A29C089819A810E943D176C01DF
:1024A0000E943C170E943B178D2D82958F7090E003
:1024B0008430910509F49CCE8530910534F42D2D9E
:1024C000207F02970CF42FCE4ECE8C3091053CF439
:1024D0008A3091050CF070CF089731F4A8CE8C307B
:1024E000910539F20F9779F22A960FB6F894DEBF6C
:1024F0000FBECDBFCF91DF911F910F91FF90EF9055
:10250000DF90CF90BF90AF900895DF92EF92FF924F
:102510000F931F93DF93CF93CDB7DEB72B970FB6F3
:10252000F894DEBF0FBECDBF4F83588769877A8787
:102530008B87D62EE42EF52E0A851B8501151105F5
:10254000B9F02FEF521749F480E090E0AFEF4A174F
:1025500011F481E090E0882359F4D986EF82F8865F
:10256000702F1B870A87A7016D2D8B850E9442194A
:10257000FE01319686E0DF011D928A95E9F7DB8244
:10258000E982FA82702F1D830C83A7016D2D8D8146
:102590009E810E94E8152B960FB6F894DEBF0FBE01
:1025A000CDBFCF91DF911F910F91FF90EF90DF9002
:1025B00008950F931F930091E70115C010E0F801F3
:1025C000EE0FFF1FE00FF11FEE0FFF1FE851FE4F50
:1025D0004081518162817381848195810E94230FA2
:1025E0000F5F1F4F07708091E601081739F71F91A1
:1025F0000F9108954091E0015091E1016091E20155
:102600007091E3018091E4019091E5010E94230F14
:1026100008950F931F93CF93DF938091E5018295E7
:102620008F7009F06DC08091E201882309F468C0C1
:102630006091E7010091E6014091E3015091E401CE
:102640001091E1017091E001EA01C095D09555C06B
:102650004115510509F44FC01F3F49F480E090E057
:102660007F3F11F481E090E0882309F044C0262FD9
:1026700030E0F901EE0FFF1FE20FF31FDF01AA0F99
:10268000BB1FA851BE4F11968C911197181799F541
:102690008C91781781F5EE0FFF1FE651FE4F808178
:1026A000882349F513968D919C911497841795076B
:1026B00018F0841B950B02C08C0F9D1F883C910560
:1026C000D0F48091E5018F7080618093E501F9017C
:1026D000EE0FFF1FE20FF31FEE0FFF1FE351FE4F40
:1026E00080818F708061808380EE91E00E945B101A
:1026F0000E94D91205C06F5F6770601709F0A8CFFC
:10270000DF91CF911F910F910895DF92EF92FF9289
:102710000F931F93DF93CF93CDB7DEB76B970FB6B1
:10272000F894DEBF0FBECDBF8C01DC011296DC90A9
:1027300012974C9111965C9111971396ED90FC9025
:1027400014972091E3013091E4016091E1017091CF
:10275000E0012115310509F4DBC16F3F09F003C227
:102760007F3F09F000C2D4C1E216F30640F0C70172
:10277000821B930B883C910508F0EEC008C02095A1
:1027800030952E0D3F1D283C310508F0E5C08091A5
:10279000E501807F09F095C06F3F09F0EAC17F3FF6
:1027A00009F0E7C115C0741799F4DD2089F4809110
:1027B000E5018F7080618093E5010E94FA1280EE3E
:1027C00091E00E945B108091E501F8018583BCC116
:1027D000FD82EC825A834983DB82DE011696FE017C
:1027E000319685E001900D928150E1F76885DE0118
:1027F0001B96FE01369685E001900D928150E1F71F
:102800002C853B858E859F85892B09F451C02F3FF0
:1028100009F0B3C13F3F09F0B0C14AC0FD82EC826C
:102820005A834983DB82DE011B96FE01319685E0E7
:1028300001900D928150E1F7FC847B856D8580913C
:10284000E7019091E6011FC0282F30E0F901EE0F5B
:10285000FF1FE20FF31FDF01AA0FBB1FA851BE4FDE
:1028600011968C911197F81651F48C91781739F4D0
:10287000EE0FFF1FE651FE4F80816817C9F42F5FEE
:102880003F4F822F87708917F9F68DC19F7059F0DD
:10289000442349F459C19F7031F0D80115968C91A9
:1028A000807F09F451C1405E483008F44DC148C1F1
:1028B000DD2009F449C18091E50181608093E50143
:1028C00043C16F3F09F05DC17F3F09F05AC114C099
:1028D000741791F4DD2081F48091E501F80185837E
:1028E000C8010E945B10A0EEB1E0F80186E0019003
:1028F0000D928150E1F720C15A83498389819A81E1
:102900000E94330F882309F41BC1DD2009F418C18C
:102910003091E501832F82958F7090E002979CF0B3
:102920009091E1012091E001FE01709686E0DF01C7
:102930001D928A95E9F7998B288BFC8AEB8A3D8B4F
:10294000CF010E945B10A0EEB1E0F80186E001909B
:102950000D928150E1F7EEC08091E501807FA9F4EE
:102960007E2DFD82EC825A834983DB826D2D8D8121
:102970000E94140F00EE11E0C8010E945B1086E077
:10298000F80111928A95E9F7C0C06F3F09F0FDC0C8
:102990007F3F09F0FAC014C0741791F4DD2081F470
:1029A0008091E501D80115968C93C8010E945B10B7
:1029B000E0EEF1E086E0DF011D928A95E9F7BEC006
:1029C0005A83498389819A810E94330F882309F4AD
:1029D000B7C0DD2009F4B4C03091E501832F8295A2
:1029E0008F7090E002979CF09091E1012091E001BE
:1029F000FE01769686E0DF011D928A95E9F79F8BAE
:102A00002E8BFA8EE98E3B8FCF010E945B10A0EED9
:102A1000B1E0F80186E001900D928150E1F78AC0A3
:102A20006F3F09F0B6C07F3F09F0B3C071C0E21636
:102A3000F30640F0C701821B930B883C910508F018
:102A400053C008C0209530952E0D3F1D283C310500
:102A500008F04AC0DD2009F473C06F3F09F09FC041
:102A60007F3F09F09CC029C0741739F59091E501AA
:102A700090FD1AC0892F82958F70B1F0F80195836F
:102A80008F3031F08F5F8295807F9F70982B958378
:102A9000C8010E945B10A0EEB1E0F80186E0019051
:102AA0000D928150E1F748C0A0EEB1E0F80186E058
:102AB00001900D928150E1F741C05A834983898189
:102AC0009A810E94330F882349F0A0EEB1E0F8010B
:102AD00086E001900D928150E1F72CC08091E501D4
:102AE00081608093E5012CC07E2DFD82EC825A83AB
:102AF0004983DB826D2D8D810E94140FE0EEF1E0A1
:102B000086E0DF011D928A95E9F70E94FA121CC047
:102B1000DD20B1F05A83498389819A810E94330F65
:102B2000882371F0A0EEB1E0F80186E001900D92EB
:102B30008150E1F70E9409130E94FA1281E005C05A
:102B4000C8010E945B10FACF80E06B960FB6F89434
:102B5000DEBF0FBECDBFCF91DF911F910F91FF90D0
:102B6000EF90DF9008958091E201882309F458CF17
:102B7000FBCD651709F02CCE16CE613009F498CE46
:102B80004DCE651709F0B8CEA3CE651709F018CF62
:102B900003CF8091E201882309F0BACF48CF6517AF
:102BA00009F08BCF61CF5A83498389819A810E9432
:102BB0003D17482F892F82958F70282F30E02230C3
:102BC00031050CF463CE243031050CF0B9CF63CE5F
:102BD0000F931F93DF93CF93CDB7DEB72C970FB62C
:102BE000F894DEBF0FBECDBF4F83588769877A87C1
:102BF0008B879C878E01095F1F4FC8010E94851338
:102C00008823D9F028853F818A859B85892B09F403
:102C10006BC02F3F49F480E090E03F3F11F481E02A
:102C200090E0882309F060C04F81588569857A85D6
:102C30008B859C850E94230F57C0DE011196F801F9
:102C400086E001900D928150E1F7F981EA814C8193
:102C50005D814115510509F447C0EF3F09F04CC0B3
:102C6000FF3F09F049C040C0F983EA835D834C838C
:102C7000F901EE0FFF1FE20FF31FEE0FFF1FE851E8
:102C8000FE4FDE01119686E00D9001928150E1F732
:102C90006093E6010E94D91227C0919FC0011124C0
:102CA00088519E4F0E948513882309F445C0809166
:102CB000E70190E0FC01EE0FFF1FE80FF91FEE0F98
:102CC000FF1FE851FE4F40815181628173818481F1
:102CD00095810E94230F8091E70190E00196877013
:102CE00090708093E70101C016E09091E701809118
:102CF000E601981791F620C08091E601282F30E078
:102D00002F5F3F4FB9016770707021503040809144
:102D1000E70190E06817790709F0A6CF0E946F0FCE
:102D20001092E6011092E701E0EEF1E086E0DF01AB
:102D30001D928A95E9F7D8CF2C960FB6F894DEBF8E
:102D40000FBECDBFCF91DF911F910F910895CF920C
:102D5000DF92EF92FF920F931F93CF93DF93EC01DB
:102D6000009709F47FC0EE24FF2480EAC82E8FE08C
:102D7000D82E01E010E0FE0121969491953709F4D8
:102D800050C0963760F4943708F040C0943008F093
:102D900057C09130B1F0923009F064C023C0983729
:102DA00009F44BC0993738F4963709F43EC0973789
:102DB00009F058C03EC0892F8458803708F052C0AF
:102DC00043C0FE0121969491892F805E883008F0DF
:102DD00037C09770802F01C0880F9A95EAF70E943C
:102DE000CD180FC0FE0121969491892F805E883006
:102DF00058F49770802F01C0880F9A95EAF70E94C7
:102E0000D3180E94F21824C0892F20C0FE012491FB
:102E100004C0C6010197F1F721502223D1F7219672
:102E200017C0FE012196E49013C00E94B718F82E37
:102E30000FC08F2D0E94C718E4CF0E94CA18E1CF9F
:102E4000892F0E94AD0F04C0892F8F770E94820FB7
:102E50002E2D04C0C6010197F1F72150222309F459
:102E60008ACFF8CFDF91CF911F910F91FF90EF9014
:102E7000DF90CF90089508950895CF92DF92EF925A
:102E8000FF920F931F93CF93DF936C01E090180292
:102E9000F090190200911A0210911B0280911C02FD
:102EA00090911D02A0911E02B0911F02E82AF92AFA
:102EB0000A2B1B2BCFE1D0E0D801C7010C2E04C098
:102EC000B695A795979587950A94D2F781709070DB
:102ED000892B41F08C2FB6010E94E71A9C018130AA
:102EE000910551F421978FEFCF3FD80729F780E064
:102EF000B6010E94E71A9C01822FDF91CF911F91AA
:102F00000F91FF90EF90DF90CF90089560931C0297
:102F100070931D0280931E0290931F020E9452190B
:102F20000E94600F08959B01AC0160911C0270919A
:102F30001D0280911E0290911F0262277327842731
:102F400095270E94861708959B01AC0160911C0291
:102F500070911D0280911E0290911F0262237323C3
:102F6000842395230E94861708959B01AC016091EC
:102F70001C0270911D0280911E0290911F02622B13
:102F8000732B842B952B0E948617089521E030E047
:102F900040E050E004C0220F331F441F551F8A95A4
:102FA000D2F780911C0290911D02A0911E02B09157
:102FB0001F02282739274A275B27CA01B9010E9427
:102FC0008617089521E030E040E050E004C0220F71
:102FD000331F441F551F8A95D2F720953095409591
:102FE000509580911C0290911D02A0911E02B091FB
:102FF0001F02282339234A235B23CA01B9010E94F7
:103000008617089521E030E040E050E004C0220F30
:10301000331F441F551F8A95D2F780911C0290914F
:103020001D02A0911E02B0911F02282B392B4A2BA2
:103030005B2BCA01B9010E948617089521E030E098
:1030400040E050E004C0220F331F441F551F8A95F3
:10305000D2F7CA01B9010E948617089560E070E0B6
:1030600080E090E00E9486170895609318027093A4
:10307000190280931A0290931B020E9451190E9418
:10308000600F08959B01AC016091180270911902C4
:1030900080911A0290911B0262277327842795273B
:1030A0000E94351808959B01AC016091180270913F
:1030B000190280911A0290911B02622373238423C8
:1030C00095230E94351808959B01AC016091180268
:1030D0007091190280911A0290911B02622B732B3E
:1030E000842B952B0E94351808950E943518089559
:1030F000382FA0910C01B0910D01FD0120E08FEF60
:103100009281931791F08F3F19F4992309F4822F3C
:103110002F5F31962630A1F78F3F39F0992787FD31
:103120009095A80FB91F12963C930895982F20E010
:1031300030E0E0910C01F0910D01E20FF31F82816C
:10314000891709F412822F5F3F4F2630310589F726
:10315000089581E090E0E0910C01F0910D01E80FFD
:10316000F91F1082019688309105A9F70895809182
:103170002802089590912802982B90932802089590
:103180008095909128029823909328020895809327
:103190002802089510922802089590912A02982BEF
:1031A00090932A020895809590912A0298239093F3
:1031B0002A02089510922A02089580932902089500
:1031C000109229020895E0910C01F0910D0191E017
:1031D00020E0818181112F5F9F5F31969830C9F780
:1031E000822F0895E0910C01F0910D018091280249
:1031F0008083E0910C01F0910D01808190912A0271
:10320000892B808390912902992369F0E0910C0128
:10321000F0910D018081892B80830E94E31888231F
:1032200011F00E94E01880910C0190910D010E9414
:10323000FB0D089590939501809394010895282F94
:1032400022952F708295807F282B30E0C9018C7CDD
:103250009070959587959595879523733070220F7B
:10326000331F220F331F822B282F30E0C9018A7AA7
:1032700090709595879525753070220F331F822B9E
:1032800008950895DF93CF9300D000D00F92CDB76B
:10329000DEB70F900F900F900F900F90CF91DF91AE
:1032A00008950895089508950E944F0E08958091FD
:1032B0003602843009F110922C0220E488E190E07B
:1032C0000FB6F894A895809360000FBE209360001D
:1032D00083B7817F846083BF83B7816083BF789425
:1032E000889583B78E7F83BF88E10FB6F89480936B
:1032F0006000109260000FBE0895089508951F9217
:103300000F920FB60F9211248F939F93AF93BF9399
:1033100080912C02882399F480912D0290912E02A5
:10332000A0912F02B09130024196A11DB11D809352
:103330002D0290932E02A0932F02B0933002BF91E2
:10334000AF919F918F910F900FBE0F901F90189586
:103350000E946F0F08951F930E947D190E94FE0422
:103360000E947E1910E0812F0E94F804882311F03A
:1033700081E004C01F5F1231B1F780E01F91089512
:1033800082E084BD93E095BD9AEF97BD80936E0077
:1033900008958FB7F89420912D0230912E0240911C
:1033A0002F02509130028FBFC90108958FB7F89452
:1033B00020912D0230912E0240912F025091300227
:1033C0008FBFB901CA0108951F920F920FB60F92D5
:1033D00011248F939F93AF93BF9380912D0290916F
:1033E0002E02A0912F02B09130020196A11DB11DB5
:1033F00080932D0290932E02A0932F02B09330025F
:10340000BF91AF919F918F910F900FBE0F901F9022
:1034100018950E94E60AF89480E29EE420E931E0E3
:10342000F9013197F1F70197D9F787E090EBA7E021
:10343000B0EB8093400290934102A0934202B0937C
:1034400043022CE088E190E00FB6F894A8958093B1
:1034500060000FBE20936000FFCF80E090E00895F1
:103460000895CF93DF93282FC0E0D0E08D3B50F438
:10347000883A28F5853AB0F4843080F4813009F038
:10348000A0C08EC0883E30F4803E40F48F3B09F0EF
:1034900098C089C0803F08F494C07EC0822F90E01D
:1034A0009C0178C0853A19F421E830E473C0863A6B
:1034B00019F023E830E46EC022E830E46BC0883AAB
:1034C00019F422EE34E466C0893A19F429EE34E4A2
:1034D00061C08A3A19F42AEE34E45CC08B3A19F4DC
:1034E00025EB34E457C08C3A19F426EB34E452C08F
:1034F0008D3A19F423EB34E44DC08E3A19F424EBE1
:1035000034E448C08F3A19F427EB34E443C0813BDC
:1035100019F42CEC34E43EC0803B19F42DEC34E477
:1035200039C0823B19F423E835E434C0833B19F4F5
:103530002AE835E42FC0843B19F422E935E42AC097
:10354000853B19F424E935E425C0863B19F421E2D2
:1035500036E420C0873B19F423E236E41BC0883BE5
:1035600019F424E236E416C0893B19F425E236E466
:1035700011C08A3B19F426E236E40CC08B3B19F4E7
:1035800027E236E407C08C3B19F020E034E402C0A7
:103590002AE236E4E90117C0C82FD0E0D06513C095
:1035A000C1E0D0E010C00E946F0F84EF91E020E9ED
:1035B00031E0F9013197F1F70197D9F70E94091A23
:1035C00002C0C0E0D0E0CE01DF91CF9108950E940B
:1035D0008A04803EB0F4803C20F5813309F460C059
:1035E000823338F4893209F453C08A3209F067C053
:1035F0005CC08933C9F08238B9F0853309F05FC007
:1036000042C0833E29F1843E30F4803EA1F0823EE8
:1036100009F055C018C0863E29F1873E09F04FC019
:1036200026C00E94A504089590913F0290FD09C014
:1036300091FD07C041C080913F0280FF02C089E335
:103640003BC080EE39C080913F0282FD07C004C0BC
:1036500080913F0282FF02C082EE2EC084FD0FC027
:1036600083EE2AC080913F0283FD07C004C0809191
:103670003F0283FF02C086EE1FC084FF02C080E0CD
:103680001BC087EE19C080913F0285FF05C006C0B0
:1036900080913F0285FF02C085E30EC089E20CC025
:1036A00080913F0286FF05C006C080913F0286FFE1
:1036B00002C081E301C08AE20E94311A08950E948B
:1036C000311A0895CF92DF92EF92FF921F93CF931A
:1036D000DF937C0110E0812F0E94F804C0E0D0E06D
:1036E000C82EDD24C6010C2E02C0959587950A943C
:1036F000E2F780FF1BC080E06C2F712F0E94E71A59
:103700009C018E159F05D9F0832F807F51F0803169
:1037100041F0803231F0803321F0803A11F0803B6B
:1037200029F4822F90E08E159F0549F02196C8302C
:10373000D105C1F61F5F123171F680E001C081E052
:10374000DF91CF911F91FF90EF90DF90CF90089580
:10375000CF93DF93EC018CE290E00E94621B882300
:1037600019F0CE010E94621BDF91CF9108951F9343
:10377000CF93DF930E943F1D882311F40E944A1DBE
:103780008CE093E00E94E80314E6C0E4DCE905C0A5
:103790000E94FE04CE010197F1F71150C8F785E0B1
:1037A00093E00E94E80389E290E00E94A81B88232E
:1037B00009F040C18AE290E00E94A81B882311F022
:1037C0000E944A1D85E090E00E94A81B882311F00A
:1037D0000E94091A0E9453190E943A1D80932B02DD
:1037E00087E090E00E94A81B8823D1F18BE190E054
:1037F0000E94A81B882349F090912B02892F86955F
:1038000080958170880F9D7F28C08EE090E00E9497
:10381000A81B882359F090912B02892F86958695B5
:1038200080958170880F880F9B7F17C080E190E0A2
:103830000E94A81B90912B02882359F0892F86950E
:103840008695869580958170880F880F880F977F61
:1038500004C0892F809581709E7F982B90932B02B6
:1038600080912B020E942A1D0E94301D80933F02EE
:1038700080EE90E00E94A81B882349F080913F02CF
:10388000982F909591708E7F892B80933F0289E3CA
:1038900090E00E94A81B882359F090913F02892F45
:1038A000869580958170880F9D7F982B90933F021D
:1038B00082EE90E00E94A81B882369F090913F025D
:1038C000892F8695869580958170880F880F9B7FBC
:1038D000982B90933F0286EE90E00E94A81B8823CD
:1038E00079F090913F02892F8695869586958095EF
:1038F0008170880F880F880F977F982B90933F02D5
:1039000083EE90E00E94A81B882369F090913F020B
:10391000892F82958F70809581708295807F9F7EA0
:10392000982B90933F0285E390E00E94A81B882388
:1039300079F090913F02892F8295869587708095C6
:1039400081708295880F807E9F7D982B90933F0297
:1039500081E390E00E94A81B882389F090913F02A8
:10396000892F829586958695837080958170829542
:10397000880F880F807C9F7B982B90933F0281E17A
:1039800090E00E94A81B882379F080913F02982F35
:10399000991F9927991F21E0922797959927979525
:1039A0008F77892B80933F0280913F020E941E1DDA
:1039B00087E290E00E94A81B182F8EE190E00E9401
:1039C000A81B811112608FE190E00E94A81B811159
:1039D000146080E290E00E94A81B8111186081E2CF
:1039E00090E00E94A81B8111106182E290E00E9489
:1039F000A81B8111106283E290E00E94A81B811134
:103A0000106484E290E00E94A81B811110681123C9
:103A100041F0812F0E94241D612F70E080E090E032
:103A200007C00E94351D90E0A0E0B0E0BC01CD01D0
:103A30000E947518DF91CF911F910895682F84E03F
:103A400090E00E9425210895682F83E090E00E9475
:103A500025210895682F82E090E00E942521089595
:103A600084E090E00E941721089583E090E00E9496
:103A70001721089582E090E00E941721089580E0C8
:103A800090E00E941F2120E08D5E9E4F09F421E00E
:103A9000822F089580E090E06DEE7EEF0E9433214A
:103AA00082E090E060E00E94252183E090E060E009
:103AB0000E94252184E090E060E00E94252185E0BD
:103AC00090E060E00E942521089580E0089580E064
:103AD000089586E097E00E94E80308951F93182F49
:103AE00000D000D0EDB7FEB7319681E297E0ADB7D8
:103AF000BEB712969C938E931197128313820E94E5
:103B000081040F900F900F900F9061E070E080E0C3
:103B100090E004C0660F771F881F991F1A95D2F78F
:103B20000E9475180E946F0F1F9108951F9387328E
:103B300038F58E3108F019C38E3009F473C28F3016
:103B400078F4873009F444C2883020F4863009F0D4
:103B500012C31DC2883081F18B3009F00CC311C231
:103B6000863109F4A4C2873120F4803109F003C3FF
:103B70006FC2893109F484C28B3109F0FCC237C2AB
:103B8000883309F4FEC1893350F4893209F4EBC259
:103B9000853309F4E8C2873209F0EDC2E4C2833408
:103BA00009F4E1C2843420F48A3308F4E4C2DFC2A9
:103BB000883409F0E0C2FAC18BE195E00E94E80385
:103BC00089E596E00E94E8030E94351D00D000D0F0
:103BD000EDB7FEB7319626E536E0ADB7BEB7129623
:103BE0003C932E931197828313820E9481040F903D
:103BF0000F900F900F9084E596E00E94E8030E94DA
:103C00003A1D182F81E496E00E94E80300D000D00E
:103C1000EDB7FEB731968CE396E0ADB7BEB712961E
:103C20009C938E931197128313820E9481040F90AC
:103C30000F900F900F908AE396E00E94E80380E3D4
:103C400096E00E94E80300D000D0EDB7FEB73196B1
:103C50008DE296E0ADB7BEB712969C938E93119706
:103C6000812F8170828313820E9481040F900F90B4
:103C70000F900F908BE296E00E94E80381E296E0BD
:103C80000E94E80300D000D0EDB7FEB731968EE178
:103C900096E0ADB7BEB712969C938E931197812F85
:103CA00086958170828313820E9481040F900F9009
:103CB0000F900F908CE196E00E94E80380E196E07F
:103CC0000E94E80300D000D0EDB7FEB731968DE03A
:103CD00096E0ADB7BEB712969C938E93119716954A
:103CE0001695812F8170828313820E9481040F9028
:103CF0000F900F900F908BE096E00E94E80382E017
:103D000096E00E94E80300D000D0EDB7FEB73196F0
:103D10008FEF95E0ADB7BEB712969C938E93119737
:103D200016951170128313820E9481040F900F90D8
:103D30000F900F908DEF95E00E94E8030E94301DD8
:103D4000182F89EE95E00E94E80300D000D0EDB76F
:103D5000FEB7319684EE95E0ADB7BEB712969C9350
:103D60008E931197128313820E9481040F900F90FB
:103D70000F900F9082EE95E00E94E80389EC95E0A9
:103D80000E94E80300D000D0EDB7FEB7319686EC74
:103D900095E0ADB7BEB712969C938E931197812F85
:103DA0008170828313820E9481040F900F900F9084
:103DB0000F9084EC95E00E94E8038DEA95E00E9464
:103DC000E80300D000D0EDB7FEB731968AEA95E05F
:103DD000ADB7BEB712969C938E931197812F86959F
:103DE0008170828313820E9481040F900F900F9044
:103DF0000F9088EA95E00E94E80386E995E00E942A
:103E0000E80300D000D0EDB7FEB7319683E995E026
:103E1000ADB7BEB712969C938E931197812F86955E
:103E200086958170828313820E9481040F900F9087
:103E30000F900F9081E995E00E94E8038FE795E0ED
:103E40000E94E80300D000D0EDB7FEB731968CE7B2
:103E500095E0ADB7BEB712969C938E931197812FC4
:103E60008695869586958170828313820E9481044F
:103E70000F900F900F900F908AE795E00E94E80353
:103E800080E795E00E94E80300D000D0EDB7FEB7D0
:103E900031968DE695E0ADB7BEB712969C938E93A2
:103EA0001197812F82958170828313820E948104F1
:103EB0000F900F900F900F908BE695E00E94E80313
:103EC00089E595E00E94E80300D000D0EDB7FEB789
:103ED000319686E595E0ADB7BEB712969C938E936A
:103EE0001197812F829586958170828313820E941B
:103EF00081040F900F900F900F9084E595E00E9441
:103F0000E80388E395E00E94E80300D000D0EDB715
:103F1000FEB7319685E395E0ADB7BEB712969C9398
:103F20008E9311971295169516951370812F8170A7
:103F3000828313820E9481040F900F900F900F9044
:103F400083E395E00E94E8038BE295E00E94E8039A
:103F500000D000D0EDB7FEB7319688E295E0ADB75E
:103F6000BEB712969C938E93119716951283138267
:103F70000E9481040F900F900F900F9086E295E0C1
:103F800002C089E696E00E94E80381E0F9C08091D2
:103F90002B02807F80932B020E94691D87E195E0B0
:103FA0000E94E80381E080933102EAC00E946F0F13
:103FB00086E095E00E94E80380E197E220E931E0A5
:103FC000F9013197F1F70197D9F70E94091ADDCF6E
:103FD00080912B0280FF08C089EF94E00E94E803E3
:103FE00080912B02807F18C08DEE94E010C08091EC
:103FF0002B02982F969590959170292F220F8D7FE7
:10400000822B80932B02992351F080EE94E00E9442
:10401000E80380912B02816080932B02B6CF82ED62
:1040200094E0B1CF80912B02982F9695969590951C
:104030009170292F220F220F8B7F822B80932B02CE
:10404000992319F083EC94E0E2CF83EB94E09BCFCB
:1040500080912B02982F96959695969590959170B4
:10406000292F220F220F220F877F822B80932B0272
:10407000992319F087EA94E0CACF8AE994E083CFC4
:104080008BE894E00E94E80388E594E00E94E8034E
:104090008BE194E00E94E8038EEE93E00E94E80337
:1040A00087EB93E00E94E8038CE893E06CCF8EE707
:1040B00093E00E94E8030E94BE0D00D000D0EDB74F
:1040C000FEB7319624E633E0ADB7BEB712963C9307
:1040D0002E931197828313820E948104EDB7FEB75D
:1040E00031968DE493E0ADB7BEB712969C938E9354
:1040F000119780910101828313820E948104EDB7A0
:10410000FEB731968AE393E0ADB7BEB712969C93A3
:104110008E9311978091BA01828313820E94810449
:104120000F900F900F900F900E94D61900D000D0E2
:1041300000D023E233E0EDB7FEB732832183ADB781
:10414000BEB713966D937D938D939C9316970E94A3
:10415000810481E0EDB7FEB736960FB6F894FEBF46
:104160000FBEEDBF0DC080E003C08D5101C089536B
:104170000E946E1D0ACF81E293E00E94E80380E076
:104180001F9108951F93182F80913102882319F0F1
:104190008130E1F508C0E0910C01F0910D018081C2
:1041A0008232B1F507C0E0910C01F0910D018081E0
:1041B000823249F4812F0E94651D8823D1F4812F1A
:1041C0000E94961D26C0812F0E94671D882389F4B6
:1041D000143191F0153118F41B3089F404C01932F0
:1041E00059F0183361F40E94691D86E297E00E943D
:1041F000E80381E090E00DC01092310204C08AE231
:1042000097E00E94E80380E090E003C01092310242
:1042100080E01F910895991B79E004C0991F9617BB
:1042200008F0961B881F7A95C9F780950895F9992B
:10423000FECF92BD81BDF89A992780B50895A8E177
:10424000B0E042E050E00C943A21262FF999FECFDD
:104250001FBA92BD81BD20BD0FB6F894FA9AF99AA3
:104260000FBE019608950E942521272F0C94262128
:10427000DC01CB01FC01F999FECF06C0F2BDE1BD26
:10428000F89A319600B40D9241505040B8F7089515
:04429000F894FFCFD0
:10429400080153062D075606F706C106200223001F
:1042A40023002600260029002900290029002900CE
:1042B4002900290029002F002F002F002F002F0094
:1042C4002F00108040800102040810204080010269
:1042D4001020408000020406080A0C0E240024006A
:1042E400270027002A002A002A002A002A002A0080
:1042F4002A002A0030003000300030003000300046
:1043040025002500280028002B002B002B002B0063
:104314002B002B002B002B00310031003100310029
:044324003100310033
:00000001FF
