:100000000C9499030C94DD030C94DD030C94DD0334
:100010000C94DD030C94DD030C94DD030C94DD03E0
:100020000C94DD030C94DD030C944C0B0C94DD0359
:100030000C94351A0C94DD030C94DD030C94DD0351
:100040000C94DD030C94DD030C94DD030C94DD03B0
:100050000C94DD030C948C1A0C94DD030C94DD03DA
:100060000C94DD030C94DD030C94DD030C94DD0390
:100070000C94DD030C94DD030C94DD030C94DD0380
:100080000C94DD030C94DD030C94DD030C94DD0370
:100090000C94DD030C94DD030C94DD030C94DD0360
:1000A0000C94DD030C94DD030C94DD033700651222
:1000B0000F26404100E2E6470046000000343813B6
:1000C00033272F2D2844450032432A4200000000E8
:1000D0000000E30000000000E500E1001D2900141D
:1000E000041E2B351B64001A161F393A190A051510
:1000F00009211722063D000807203C3B100B111870
:100100000D241C23363F000C0E25302E000000006D
:10011000004E004B00525000004D004AE4000048E1
:10012000003E00E0002C51000000004C00004F0099
:100130000000004900000000E70000000A00253030
:100140003862003A200025303258000A722F6320AE
:1001500030313233343536370A00626F756E63657D
:10016000213A20253032580A005B735D004B6579D7
:10017000626F6172642073746172742E0A00555349
:100180004220636F6E666967757265642E0A005B54
:10019000575D005B535D005B525D005B445D005B3F
:1001A000435D0005010906A101050719E029E715CE
:1001B00000250195087501810295017508810105E9
:1001C000081901290595057501910295017503919D
:1001D000010507190029FF150025FF9506750881FF
:1001E00000C005010980A101850216010026B700A3
:1001F0001A01002AB700751095018100C0050C098D
:1002000001A1018503160100269C021A01002A9C07
:1002100002751095018100C00631FF0974A1010922
:1002200075150025FF9520750881020976150025B2
:10023000FF952075089102C012011001000000080E
:10024000EDFE19B901000102000109025B00030182
:1002500000A032090400000103010100092111017D
:100260000001223F000705810308000A090401007C
:1002700001030000000921110100012236000705D9
:10028000820308000A090402000203000000092199
:10029000110100012220000705830320000107054A
:1002A0000303200001040309040E0374002E006DF3
:1002B000002E006B002E0000001E03480049004481
:1002C0000020004C0069006200650072006100744B
:1002D0000069006F006E0000000A002530325820CF
:1002E000006B6579626F6172645F7265706F7274C2
:1002F0003A20000A0025303258006B6579626F6140
:1003000072645F7365745F6C65643A2000646F6E3D
:10031000652E0A00626F6F676D61676963207363A2
:10032000616E3A202E2E2E20003F0074696D65729A
:100330005F636F756E743A202530346C580A006B19
:100340006579626F6172645F69646C653A202558F3
:100350000A006B6579626F6172645F70726F746FAF
:10036000636F6C3A2025580A00686F73745F6B6581
:1003700079626F6172645F6C65647328293A202525
:10038000580A000A092D20537461747573202D0AD0
:10039000004743433A20342E332E33204156522D0A
:1003A0004C4942433A20312E362E37204156525F77
:1003B000415243483A20617672350A004F50544901
:1003C0004F4E533A204C55464120424F4F544D41D9
:1003D0004749432045585452414B455920434F4EBD
:1003E000534F4C4520434F4D4D414E4420343039FE
:1003F000360A004255494C443A20383034393137B6
:10040000362D6469727479202832333A32333A31A6
:1004100038204A756C2032312032303136290A00BA
:100420005649443A2030784645454428742E6D2E6E
:100430006B2E29205049443A2030784239313928EE
:10044000484944204C696265726174696F6E292065
:100450005645523A203078303030310A0044455306
:10046000433A20742E6D2E6B2E206B6579626F617E
:100470007264206669726D7761726520666F7220A2
:10048000484944204C696265726174696F6E0A0064
:100490000A092D2056657273696F6E202D0A000AB5
:1004A0006D6F7573653A206F66660A000A6D6F7529
:1004B00073653A206F6E0A000A6B6579626F61722C
:1004C000643A206F66660A000A6B6579626F617232
:1004D000643A206F6E0A000A6D61747269783A207E
:1004E0006F66660A000A6D61747269783A206F6EF1
:1004F0000A000A64656275673A206F6E0A000A6432
:10050000656275673A206F66660A000A0A626F6F55
:10051000746C6F616465722E2E2E2000433E2000A5
:100520006565636F6E6669673A0A000A00257500A3
:100530002E6E6B726F3A20000A002575002E7377BD
:1005400061705F6261636B736C6173685F6261634A
:100550006B73706163653A20000A002575002E7385
:100560007761705F67726176655F6573633A2000DB
:100570000A002575002E6E6F5F6775693A20000AC4
:10058000002575002E737761705F72616C745F7205
:100590006775693A20000A002575002E737761702F
:1005A0005F6C616C745F6C6775693A20000A0025A6
:1005B00075002E636170736C6F636B5F746F5F6344
:1005C0006F6E74726F6C3A20000A002575002E73EE
:1005D0007761705F636F6E74726F6C5F636170736D
:1005E0006C6F636B3A20000A0025303258006B654F
:1005F000796D61705F636F6E6669672E7261773ABD
:1006000020000A002575002E6D6F7573653A200075
:100610000A002575002E6B6579626F6172643A205D
:10062000000A002575002E6D61747269783A200009
:100630000A002575002E656E61626C653A20000A1D
:1006400000253032580064656275675F636F6E66BF
:1006500069672E7261773A20000A0025750064658B
:100660006661756C745F6C617965723A20000A0985
:100670002D204D61676963202D0A643A0964656223
:1006800075670A783A096465627567206D617472EE
:1006900069780A6B3A096465627567206B657962EF
:1006A0006F6172640A6D3A096465627567206D6FE7
:1006B0007573650A763A0976657273696F6E0A73A7
:1006C0003A097374617475730A633A09636F6E73E0
:1006D0006F6C65206D6F64650A302D343A096C616A
:1006E000796572302D34284631302D4634290A5030
:1006F0006175733A09626F6F746C6F616465720A39
:10070000653A09656570726F6D0A000A092D20430C
:100710006F6E736F6C65202D0A4553432F713A0934
:10072000717569740A004C25640A00433E20003F3D
:10073000000011241FBECFEFDAE0DEBFCDBF04B64C
:1007400003FE24C08091400290914102A091420298
:10075000B09143028750904BA740B04BB9F4109230
:10076000400210924102109242021092430214BEC3
:1007700084B7877F84BF88E10FB6F89480936000C8
:10078000109260000FBEE0E0F8E3099511E0A0E0F0
:10079000B1E0E6E1F1E402C005900D92A439B107A1
:1007A000D9F712E0A4E9B1E001C01D92A034B1076D
:1007B000E1F70E9479070C9489200C940000FF93C4
:1007C000EF93E0919401F0919501309709F009952C
:1007D000EF91FF910895FC018591803011F0EFDFDA
:1007E000FBCF0895FF27E0E230E247FF0CC04195C0
:1007F00097FF09C0EDE26095709580959095611D19
:10080000711D811D911D27FF02C0219530E350E22B
:10081000AA27660F771F881F991FAA1FA41710F019
:10082000A41B63955A95A9F7AA3008F0A95FA05DAB
:10083000AF93F395611571058105910541F7ED328F
:1008400011F4EF93F395F21718F43F93F395FBCF60
:100850008F91B5DFFA95E1F70895E991F9918591C6
:10086000803021F0853219F0AADFF9CF089520E019
:10087000E89455915532C1F3503311F46894559171
:100880005A3348F4505390F3220F022E220F220FB6
:10089000200D250FF4CF0EF42195899199915336AF
:1008A00019F3533729F1533559F1BC01882799279A
:1008B000E8945C3621F48991999168945591543665
:1008C00039F446EF7EF077FF0DC08FEF9FEF0AC03F
:1008D00055374AE039F0583540E121F0523642E0D0
:1008E00009F00895FF93EF937DDFEF91FF91B7CF6C
:1008F000FF93EF93FC0181918030B9F360DFFBCF70
:10090000FF93EF9368DFF1CFDF93CF93CDB7DEB7DF
:100910002596A3DFCF91DF910895E72FF0E070E0F7
:10092000882359F493E0EE0FFF1F9A95E1F7E60F45
:10093000F71FE455FF4F8491089583E0EE0FFF1FEA
:100940008A95E1F7E60FF71FE455FF4F849108956C
:1009500080E090E00895CF93DF9385B7806885BFEE
:1009600085B7806885BF84B18E6084B985B1817F89
:1009700085B9C2E3D1E0A0E0B0E0FD01E45BFE4F49
:100980000190F081E02D9991909580818923808359
:10099000FD01E059FE4F0190F081E02D8081892317
:1009A00080831296A432B10541F78C9180668C93B6
:1009B00085B1806685B980E090E0FC01EA56FE4F83
:1009C0001082FC01E855FE4F10820196823191059C
:1009D000A1F7DF91CF910895E6E9F1E0E80FF11D6D
:1009E000808108954F925F926F927F928F929F9233
:1009F000AF92BF92CF92DF92EF92FF920F931F932D
:100A0000CF93DF93CC24DD244AE1442E31E0632EE2
:100A1000712C2AE5822E21E0922E98E0592EBC2CD2
:100A200085B1817FF601EC5BFE4F9081892B85B902
:100A3000842D8A95F1F7C3010C2C02C0880F991FF1
:100A40000A94E2F7A82EC8EAD1E08EE0E82E81E011
:100A5000F82E02E311E04881242F30E00B2C02C075
:100A6000359527950A94E2F72170307050E0D70150
:100A7000ED91FC918081F8019081892309F051E08A
:100A80005217F9F04A254883909100019923B9F053
:100A900080912B0280FF13C000D000D0EDB7FEB7CD
:100AA0003196ADB7BEB712969C928E9211979283F3
:100AB00013820E9484040F900F900F900F90509219
:100AC00000012196E2E0F0E0EE0EFF1E0F5F1F4FE7
:100AD000F1E0CA3BDF0709F0BECF0894C11CD11C6E
:100AE00088E0C816D10409F09ACF809100018823CC
:100AF000C9F0815080930001882329F080EA9FE0AB
:100B00000197F1F70FC020E030E0F901EA56FE4FFF
:100B1000D901A855BE4F8C9180832F5F3F4F223162
:100B2000310599F781E0DF91CF911F910F91FF90EF
:100B3000EF90DF90CF90BF90AF909F908F907F907D
:100B40006F905F904F900895EF92FF920F931F93D5
:100B5000CF93DF938BE491E00E94EB03C0E0D0E001
:100B600056E4E52E51E0F52E0EE311E000D000D062
:100B7000ADB7BEB71296FC92EE9211971496DC9325
:100B8000CE9313970E9484040F900F900F900F90B4
:100B900083E491E00E94EB03FE01EA56FE4F808160
:100BA0000E94EB1900D000D0EDB7FEB73196ADB77B
:100BB000BEB712961C930E931197828313820E94E4
:100BC00084040F900F900F900F908CE391E00E949F
:100BD000EB032196C231D10549F6DF91CF911F91E8
:100BE0000F91FF90EF900895279A97B1906697B96B
:100BF00081FF02C0469801C0469A80FF02C0459816
:100C000001C0459A82FF02C02F9808952F9A089537
:100C10008091BE018F5F8093BE0162E30E944C20F1
:100C20009923A9F51092BE018091BC01882379F126
:100C300080913702843049F59091E9008091EC0071
:100C400080FD02C080E001C080E89F70982B83E0A7
:100C50008093E9008091EB0080FF14C08091EE004A
:100C600087FD03C00FC01092F1008091E80085FD60
:100C7000FACF8091E80080FF05C08091E8008E7770
:100C80008093E8009F709093E9001092BC01089552
:100C90008091BB0108950895682F8FB7F894109242
:100CA000BC018FBF80913702843011F08FEF08951F
:100CB0009091E9008091EC0080FD02C080E001C0CD
:100CC00080E8392F3F70382B83E08093E9008091D2
:100CD000EB0080FF43C08091EE0087FF3FC0809112
:100CE000BD01882321F08091E80085FF37C0109274
:100CF000BD0125E040EA5FE012C0809137028430F8
:100D000069F58091EB0085FD29C0222321F481E063
:100D10008093BD0123C02150CA010197F1F7809152
:100D2000E80085FFEACF6093F1008091E80085FD3F
:100D30000AC08091E80080FFFCCF8091E8008E77A8
:100D40008093E80006C09FB7F89481E08093BC01CF
:100D50009FBF3F703093E90080E008953F7030936B
:100D6000E9008FEF0895DF93CF9300D00F92CDB7B6
:100D7000DEB7AC0180913702843029F582E08093A0
:100D8000E9002FEF95ED05C0892F8A95F1F7222311
:100D900029F08091E800215085FFF6CF8091E8008E
:100DA00085FF11C05B834A8383E08983CE0101966E
:100DB00063E070E040E050E00E94EC098091E800C0
:100DC0008E778093E8000F900F900F90CF91DF9176
:100DD0000895DF93CF9300D00F92CDB7DEB7AC016B
:100DE00080913702843029F582E08093E9002FEF6B
:100DF00095ED05C0892F8A95F1F7222329F080917E
:100E0000E800215085FFF6CF8091E80085FF11C0F2
:100E10005B834A8382E08983CE01019663E070E0C0
:100E200040E050E00E94EC098091E8008E778093CA
:100E3000E8000F900F900F90CF91DF9108950F93DE
:100E40001F93182F092F80913702843061F581E0BC
:100E50008093E9009FEF25ED05C0822F8A95F1F779
:100E6000992329F08091E800915085FFF6CF809179
:100E7000E80085FF18C0812F902F68E070E040E007
:100E800050E00E94EC098091E8008E778093E800A2
:100E9000AFEBB1E0212F302FC901FC0188E00190B8
:100EA0000D928150E1F71F910F91089583E991E030
:100EB0000E94EB03089587E991E00E94EB030895F7
:100EC0008BE991E00E94EB031092360208958FE9BE
:100ED00091E00E94EB0380913602882349F40E943E
:100EE000CC0A0E942D0B8091E20084608093E20086
:100EF000089584B7877F84BF88E10FB6F894809304
:100F00006000109260000FBE80E090E020E80FB615
:100F1000F89420936100809361000FBE0E94320E0E
:100F20000E94CC0A0E942D0B8091E2008460809385
:100F3000E2008CE496E00E94E619789402C00E94D8
:100F4000890D809137028430D1F78EE791E00E94BD
:100F5000EB030E94FB0E82E091E00E949F0D8DE664
:100F600091E00E94EB0310C089E691E00E94EB0340
:100F70000E940D1A80913502882331F00E94611A77
:100F8000882311F00E94010980913702853061F3B6
:100F90000E94670E0E94890DF7CF8091390283303D
:100FA00009F455C0843030F4813071F0823009F09A
:100FB000AFC096C08A3009F483C08B3009F468C092
:100FC000893009F0A5C020C080913802813A09F02B
:100FD0009FC08091E800877F8093E80080913C0269
:100FE00090913D02892B21F48FEB91E068E003C0E2
:100FF00080E090E060E070E00E9417098091E800D6
:101000008B778093E800089580913802813209F04F
:101010007FC080913C0290913D02892B09F078C0FD
:101020008091E800877F8093E80005C080913702B7
:10103000882309F46DC08091E80082FFF7CF80918A
:10104000F1008093BB018091E8008B771CC08091F8
:101050003802813A09F05CC080913C0290913D02D7
:10106000892B09F055C08091E800877F8093E800C4
:101070008091E80080FFFCCF809101018093F10016
:101080008091E8008E778093E8000E94790A0895A5
:10109000809138028132E1F580913C0290913D02CD
:1010A000892BB1F58091E800877F8093E8000E944A
:1010B000790A80913A02809301010E945D0F0895A0
:1010C00080913802813221F58091E800877F8093FA
:1010D000E8000E94790A80913B028093BA0108954A
:1010E00080913802813AA1F48091E800877F809353
:1010F000E8008091E80080FFFCCF8091BA018093E6
:10110000F1008091E8008E778093E8000E94790AD0
:10111000089581E061EC42E00E94410A82E061ECC6
:1011200042E00E94410A83E061EC42E20E94410AEF
:1011300008958FE891E00E94EB030E945E1A0895E3
:10114000DA019330C1F0943030F4913051F09230A4
:1011500009F04FC00BC0913221F1923209F049C021
:1011600032C0E8E3F2E022E130E047C0EAE4F2E036
:101170002BE530E042C0813051F0813020F08230E8
:1011800009F037C008C0E5EAF2E0849107C0E9EA57
:10119000F2E0849103C0E9EBF2E08491282F30E083
:1011A0002CC0613041F0613018F0623011F508C098
:1011B000ECE5F2E002C0E5E7F2E029E030E01DC036
:1011C000EEE8F2E0FACF613051F0613018F06230B1
:1011D00081F40AC0E3EAF1E02FE330E00EC0E2EE72
:1011E000F1E026E330E009C0E8E1F2E020E230E09F
:1011F00004C0E0E0F0E020E030E0ED93FC93C901B2
:10120000089580E189BD82E189BD09B400FEFDCF6A
:101210008091D8008F7D8093D8008091E00082601B
:101220008093E0008091E00081FDFCCF08959C0157
:1012300040913E0250913F024617570718F4F901BA
:1012400090E043C06115710511F0AB01F8CF8091BA
:10125000E8008E778093E80040E050E0F0CF809186
:101260003702882309F447C0853009F446C08091CD
:10127000E80083FD44C08091E80082FD36C0809183
:10128000E80080FF22C08091F3009091F200782F57
:1012900060E0292F30E0262B372B07C08191809307
:1012A000F100415050402F5F3F4F4115510519F05B
:1012B0002830310598F390E02830310509F491E0A9
:1012C0008091E8008E778093E8004115510539F64A
:1012D000992329F60AC080913702882361F085306E
:1012E00061F08091E80083FD0AC08091E80082FFF0
:1012F000F2CF80E0089582E0089583E0089581E0D0
:1013000008959C0140913E0250913F0246175707B5
:1013100018F4F90190E044C06115710511F0AB01BA
:10132000F8CF8091E8008E778093E80040E050E0AD
:10133000F0CF80913702882309F448C0853009F442
:1013400047C08091E80083FD45C08091E80082FDA0
:1013500037C08091E80080FF23C08091F300909116
:10136000F200782F60E0292F30E0262B372B08C0C1
:1013700084918093F1003196415050402F5F3F4F50
:101380004115510519F02830310590F390E02830CF
:10139000310509F491E08091E8008E778093E800B0
:1013A0004115510531F6992321F60AC08091370283
:1013B000882361F0853061F08091E80083FD0AC0E8
:1013C0008091E80082FFF2CF80E0089582E00895E6
:1013D00083E0089581E00895BF92CF92DF92EF926B
:1013E000FF920F931F93CF93DF93182F092F7B0149
:1013F0006A010E949A0AB82E8823C1F5812F902F86
:101400009C01E901C114D10439F0F6018081918178
:10141000E81AF90AC80FD91F00E010E024C0809133
:10142000E80085FD18C08091E8008E778093E80081
:101430000E94890DC114D10449F0F6018081918187
:10144000800F911F9183808385E011C00E949A0ACA
:10145000882349F00CC089918093F1000894E10839
:10146000F1080F5F1F4FE114F104C9F68B2DDF91D6
:10147000CF911F910F91FF90EF90DF90CF90BF9091
:101480000895382F282F2EC0822F8F708093E90067
:10149000231721F4762F942F50E006C07091EC00B2
:1014A0009091ED005091F00091FF1BC08091EB00F6
:1014B0008E7F8093EB008091ED008D7F8093ED0017
:1014C0008091EB0081608093EB007093EC0090932F
:1014D000ED005093F0008091EE0087FD02C080E0A7
:1014E00008952F5F273080F23F703093E90081E04C
:1014F00008958091380288239CF404C080913702BB
:101500008823B9F08091E80082FFF8CF8091E8004D
:101510008B778093E800089580913702882349F003
:101520008091E80080FFF8CF8091E8008E7780936B
:10153000E80008954091E4005091E50024E6809190
:10154000EC0080FF24C08091E80080FD1EC08091E7
:101550003702882311F482E00895853011F483E086
:1015600008958091EB0085FF02C081E0089580918D
:10157000E4009091E5008417950709F3222311F404
:1015800084E008952150AC01DACF80E00895809185
:10159000E80082FFDCCFF9CF0E943F0B0E94470B8F
:1015A000E0EEF0E0808181608083A8EDB0E08C9176
:1015B0008F778C9319BCE7EDF0E080818E7F80837C
:1015C0008C918F7E8C93109236020895EF92FF9249
:1015D0000F931F930E943F0B0E94470B08ED10E0F2
:1015E000F80180818F77808380818068808380810B
:1015F0008F7D808319BC10923702109233021092B3
:1016000035021092340280EEE82EF12CF701808131
:101610008B7F8083F80180818160808380E060E03F
:1016200042E00E94410AE1EEF0E080818E7F8083FB
:10163000E2EEF0E080818160808380818860808339
:10164000F70180818E7F8083F801808180618083B3
:101650001F910F91FF90EF900895E8EDF0E08081E9
:101660008F7E8083E7EDF0E080818160808384E07D
:1016700082BF81E0809336020E94E60A0895E8ED79
:10168000F0E080818E7F80831092E20008951092B6
:10169000DA001092E10008951F920F920FB60F9298
:1016A00011242F933F934F935F936F937F938F9367
:1016B0009F93AF93BF93EF93FF938091E10082FFDD
:1016C0000BC08091E20082FF07C08091E1008B7F18
:1016D0008093E1000E9408068091DA0080FF1FC01D
:1016E0008091D80080FF1BC08091DA008E7F8093AC
:1016F000DA008091D90080FF0DC080E189BD82E1D0
:1017000089BD09B400FEFDCF81E0809337020E94BD
:10171000670705C019BC109237020E9460078091CC
:10172000E10080FF19C08091E20080FF15C0809128
:10173000E2008E7F8093E2008091E20080618093DE
:10174000E2008091D80080628093D80019BC85E0C7
:10175000809337020E9456078091E10084FF30C0D9
:101760008091E20084FF2CC080E189BD82E189BDC7
:1017700009B400FEFDCF8091D8008F7D8093D80002
:101780008091E1008F7E8093E1008091E2008F7E66
:101790008093E2008091E20081608093E20080917A
:1017A0003302882311F084E007C08091E30087FDB5
:1017B00002C081E001C083E0809337020E94990853
:1017C0008091E10083FF24C08091E20083FF20C06C
:1017D0008091E100877F8093E10082E0809337026F
:1017E000109233028091E1008E7F8093E10080911E
:1017F000E2008E7F8093E2008091E200806180931E
:10180000E20080E060E042E00E94410A0E945B0743
:10181000FF91EF91BF91AF919F918F917F916F91C8
:101820005F914F913F912F910F900FBE0F901F909E
:1018300018951F93DF93CF93CDB7DEB7AC970FB654
:10184000F894DEBF0FBECDBFE8E3F2E08091F10077
:10185000819322E0E034F207C9F70E94CD0780911E
:10186000E80083FF3EC18091380230913902353063
:1018700009F487C0363040F43130C9F1313070F0AE
:10188000333009F02EC133C0383009F4F9C0393093
:1018900009F409C1363009F024C197C0803821F01D
:1018A000823809F01EC108C090913402809135023F
:1018B000882399F0926011C080913C028F708093D0
:1018C000E9008091EB0090E025E0969587952A95B8
:1018D000E1F7982F91701092E9008091E800877FDE
:1018E0008093E8009093F1001092F100D4C0882317
:1018F00019F0823009F0F5C090E08F719070009778
:1019000021F0029709F0EDC00CC080913A028130BD
:1019100009F0E7C010923502333069F58093350243
:101920002AC080913A02882331F520913C022F7021
:1019300009F4D7C02093E9008091EB0080FF1BC021
:10194000333021F48091EB00806213C08091EB0072
:1019500080618093EB0081E090E002C0880F991FC6
:101960002A95E2F78093EA001092EA008091EB005A
:1019700088608093EB001092E9008091E800877FF7
:101980008DC0882309F0ADC010913A021F77809175
:10199000E3008078812B8093E3008091E800877FCB
:1019A0008093E8000E94790A8091E80080FFFCCFD4
:1019B0008091E30080688093E300112311F482E0BA
:1019C00001C083E0809337028CC08058823008F0D9
:1019D00088C080913A0290913B0223E08C3D9207AF
:1019E00009F034C083E08C838AE28B837FB7F8945C
:1019F000DE0115966EE040E050E011E2E62FF0E0E7
:101A000010935700849140FF03C082958F706F5FE1
:101A10008F70282F30E08A3018F0C901C79602C0B5
:101A2000C901C0968D939D934F5F5F4F443151051F
:101A300029F77FBF8091E800877F8093E800CE017F
:101A400003966AE270E00E94170914C060913C029C
:101A5000AE014F5F5F4F0E94A008BC01009709F4E0
:101A600040C08091E800877F8093E80089819A8157
:101A70000E9481098091E8008B778093E80031C053
:101A8000803879F58091E800877F8093E800809125
:101A900033028093F1008091E8008E778093E80014
:101AA0000E94790A1EC08823E1F490913A02923094
:101AB000C0F48091E800877F8093E8009093330220
:101AC0000E94790A80913302882331F48091E300E7
:101AD00087FD02C081E001C084E0809337020E944C
:101AE00089088091E80083FF0AC08091E800877F21
:101AF0008093E8008091EB0080628093EB00AC96CD
:101B00000FB6F894DEBF0FBECDBFCF91DF911F910E
:101B100008951F9380913702882379F01091E9008E
:101B20008091EC001092E9008091E80083FF02C0F0
:101B30000E94190C1F701093E9001F910895909353
:101B4000CC018093CB010895E091CB01F091CC01C1
:101B5000309711F480E008950190F081E02D09950F
:101B600008959C018091C9019091CA0128173907F5
:101B700079F03093CA012093C901E091CB01F09133
:101B8000CC01309729F00680F781E02DC901099535
:101B900008959C018091C7019091C80128173907C9
:101BA00079F03093C8012093C701E091CB01F09107
:101BB000CC01309729F00084F185E02DC901099509
:101BC0000895EF92FF920F931F93CF93DF93182FF7
:101BD000092FE091CB01F091CC013097D9F102802F
:101BE000F381E02D099580912B0282FF33C080FFA5
:101BF00004C081EE92E00E94EB03812F902F9C01A4
:101C0000E90110E08BEDE82E82E0F82E80912B02A6
:101C100080FF14C000D000D0EDB7FEB73196ADB74D
:101C2000BEB71296FC92EE9211978881828313823E
:101C30000E9484040F900F900F900F901F5F2196C9
:101C4000183021F780912B0280FF04C089ED92E0CB
:101C50000E94EB03DF91CF911F910F91FF90EF90C6
:101C6000089508950E94310E08951F93182F8091B2
:101C70002B0282FF27C080FF04C08AEF92E00E94FF
:101C8000EB0380912B0280FF15C000D000D0EDB790
:101C9000FEB7319685EF92E0ADB7BEB712969C9332
:101CA0008E931197128313820E9484040F900F90D9
:101CB0000F900F9080912B0280FF04C083EF92E081
:101CC0000E94EB03812F0E94F4051F910895BF929B
:101CD000CF92DF92EF92FF920F931F93DF93CF93F8
:101CE000CDB7DEB72A970FB6F894DEBF0FBECDBFD3
:101CF0000E94F204EE24FF24BE2C8E2D0E94EC04E0
:101D0000C82EF701E253FE4FD080D82609F43FC019
:101D100080912B0281FF02C00E94A40500E010E028
:101D2000ED2DF0E0CF01002E02C0959587950A9425
:101D3000E2F780FF27C00E947F1A0983BA826C2DC8
:101D400070E0002E02C0759567950A94E2F7617005
:101D500070706B8381609D838C83402F5B2D782F07
:101D60008D810E946F12F701E253FE4F81E090E0F7
:101D7000002E02C0880F991F0A94E2F720812827BD
:101D800020831DC00F5F1F4F0830110559F60894BE
:101D9000E11CF11C82E1E816F10409F0ADCF0E94CC
:101DA0007F1A2FEF2E832F8318868160782F9A87D2
:101DB00089874FEF5FEF60E08A850E946F12109174
:101DC000CD010E94A40D181731F00E94A40D80933C
:101DD000CD010E94350E2A960FB6F894DEBF0FBED5
:101DE000CDBFCF91DF911F910F91FF90EF90DF90CA
:101DF000CF90BF9008950E94761A0E94AB040E9473
:101E0000111B0895DF93CF9300D000D00F92CDB770
:101E1000DEB70F900F900F900F900F90CF91DF9142
:101E20000895DF93CF9300D000D000D0CDB7DEB7B8
:101E300026960FB6F894DEBF0FBECDBFCF91DF91CF
:101E400008950E94E616482F892F82958F70282FBB
:101E500030E02C3031054CF42A3031056CF422503E
:101E6000304022303105C0F407C02C30310551F02C
:101E70002F30310589F406C0403E10F0403F61F438
:101E800081E008959F70892F90E023E096958795D3
:101E90002A95E1F78170089580E008950E947918ED
:101EA0000E944E180E94911880E090E00E94B10DAF
:101EB00080E090E00E94C90D08950E9469180E9478
:101EC0004E0F0895882321F00E9462180E949118F5
:101ED0000895882321F00E945C180E9491180895AB
:101EE000282F882339F18450813A20F4822F0E94D0
:101EF0003B180DC0822F805E883060F4277081E02F
:101F000090E001C0880F2A95EAF70E9462180E94AB
:101F100091180895822F855A833028F480E090E04C
:101F20000E94B10D0895285A233120F480E090E0FA
:101F30000E94C90D08951F93182F882309F4A7C084
:101F40008450813A50F4812F0E940320882309F0A5
:101F50009EC0812F0E941D180DC0812F805E883089
:101F600060F4177081E090E001C0880F1A95EAF7DD
:101F70000E945C180E9491188AC0812F855A833074
:101F8000A0F4153A19F481E890E00CC0163A19F45F
:101F900082E890E007C0173A19F080E090E002C0B4
:101FA00083E890E00E94B10D72C0812F885A83317E
:101FB00008F06DC0183A19F482EE90E066C0193A44
:101FC00019F489EE90E061C01A3A19F48AEE90E0B3
:101FD0005CC01B3A19F485EB90E057C01C3A19F429
:101FE00086EB90E052C01B3B19F483EB90E04DC0B0
:101FF0001C3B19F484EB90E048C01D3A19F487EBC0
:1020000090E043C0103B19F48CEC90E03EC01E3AC7
:1020100019F48DEC90E039C01F3A19F483E891E08F
:1020200034C0113B19F48AE891E02FC0123B19F437
:1020300082E991E02AC0133B19F484E991E025C0BC
:10204000143B19F481E292E020C0153B19F483E2BD
:1020500092E01BC0163B19F484E292E016C0173BD5
:1020600019F485E292E011C0183B19F486E292E07F
:102070000CC0193B19F487E292E007C01A3B19F033
:1020800080E090E002C08AE292E00E94C90D1F91B8
:102090000895AF92BF92CF92DF92EF92FF920F938B
:1020A0001F93DF93CF93CDB7DEB72A970FB6F8947F
:1020B000DEBF0FBECDBF5C01DE011196FC0185E0E5
:1020C00001900D928150E1F70B81F501F580F294BA
:1020D0004FE0F422DE011696FE01319685E0019074
:1020E0000D928150E1F73E812F8189859A85892B58
:1020F00009F4E4C12F3F09F0B8C13F3F09F0B5C171
:10210000DDC18D2D8F70222311F4182F03C0182FDD
:102110001295107F002349F0112309F480C1812F0B
:102120000E946C180E9491187AC18C2D0E94700F29
:10213000112309F4C3C1812F0E9472180E949118C3
:10214000BDC18D2D8F70203211F4182F03C0182FB0
:102150001295107FCC2021F0F1E0CF1609F514C0C4
:10216000002349F0FF2031F121E0F21619F5812F0B
:102170000E947C18A3C1FF2021F081E0F81609F429
:102180009DC10E947F181FC1002329F0E5E0EF15D3
:1021900008F494C10FC0F4E0FF1508F48FC113C117
:1021A000002361F0FF2031F0F501858180FF37C108
:1021B0008F708583812F0E94690F80C1FF2009F4F1
:1021C00002C138C18D2D86958695837090E0009769
:1021D00021F0019709F072C10AC0002319F0C6016D
:1021E000937002C080E090E00E94B10D67C10023AF
:1021F00019F0C601937002C080E090E00E94C90D02
:102200005DC18D2D837009F05EC0002309F056C1B9
:102210002C2D229526952770220F220F8C2D8F7042
:10222000E82EFF2400E010E0022E04C0EE0CFF1C9C
:10223000001F111F0A94D2F7C4FC05C060E070E0D3
:1022400080E090E00FC06FE070E080E090E004C0BC
:10225000660F771F881F991F2A95D2F76095709592
:1022600080959095D694D694F3E0DF224D2D50E0E2
:1022700041305105A9F0423051051CF4452B49F07D
:102280001DC14230510589F04330510509F016C196
:1022900013C06E297F29802B912B0E94F8170EC145
:1022A0006E297F29802B912B0BC06E297F29802BD3
:1022B000912B0E94E71702C10E94F817C801B701CD
:1022C0000E940918FBC090E0002311F496958795B1
:1022D000817009F4F3C02C2D229526952770220FCA
:1022E000220F8C2D8F70E82EFF2400E010E0022ECC
:1022F00004C0EE0CFF1C001F111F0A94D2F7C4FC8F
:1023000005C060E070E080E090E00FC06FE070E03A
:1023100080E090E004C0660F771F881F991F2A9500
:10232000D2F76095709580959095D694D69423E0D9
:10233000D2224D2D50E041305105A9F042305105D7
:102340001CF4452B49F0BAC04230510589F04330A6
:10235000510509F0B3C013C06E297F29802B912B42
:102360000E944B17ABC06E297F29802B912B0BC08D
:102370006E297F29802B912B0E943A179FC00E94C3
:102380004B17C801B7010E945C1798C080EFC816B0
:10239000F1F08C1520F0E0EECE16E8F109C0F2EF76
:1023A000CF1651F1CF1618F123EFC216A1F529C0AF
:1023B0001C2D1F708D2D8F71002319F00E94A917FD
:1023C000F9CE0E948917812F0E94620F77C00023E7
:1023D00029F084E08F1508F471C004C0E5E0EF1522
:1023E00008F46CC08D2D8F710E946D1767C08D2D04
:1023F0008F71002329F119C08D2D8F710023A9F051
:102400001FC0002329F08D2D8F710E94C51756C063
:102410000E94D51753C0002359F0FF2021F08C2DC6
:102420000E949B0F4BC08D2D8F710E94A91746C033
:10243000FF2021F08C2D0E94700F40C08D2D8F71D8
:102440000E9489173BC0FFE0DF22C5016C2D4D2D96
:102450000E94B9180E946B1631C02FE0D222C5012C
:102460006C2D4D2D0E94BC1829C089819A810E9433
:10247000E6166C010E94E5160E94E4168D2D8295E9
:102480008F7090E08430910509F49CCE85309105E1
:1024900034F42D2D207F02970CF433CE52CE8C30A5
:1024A00091053CF48A3091050CF070CF089731F417
:1024B000A8CE8C30910539F20F9779F22A960FB693
:1024C000F894DEBF0FBECDBFCF91DF911F910F916A
:1024D000FF90EF90DF90CF90BF90AF900895DF9383
:1024E000CF93CDB7DEB72B970FB6F894DEBF0FBEF4
:1024F000CDBF342F4F83252F588769877A878B87E5
:10250000472F582FFE01319686E0DF011D928A95F4
:10251000E9F76B8339832A834C835D83432F522FE2
:102520008D819E810E94AC152B960FB6F894DEBF6C
:102530000FBECDBFCF91DF9108950F931F930091F0
:10254000E70115C010E0F801EE0FFF1FE00FF11FCB
:10255000EE0FFF1FE851FE4F408151816281738170
:10256000848195810E94110F0F5F1F4F077080912A
:10257000E601081739F71F910F9108954091E00186
:102580005091E1016091E2017091E3018091E401D9
:102590009091E5010E94110F08950F931F93CF931F
:1025A000DF938091E50182958F7009F06DC0809175
:1025B000E201882309F468C06091E7010091E60117
:1025C0004091E3015091E4011091E1017091E0012B
:1025D000EA01C095D09555C04115510509F44FC089
:1025E0001F3F49F480E090E07F3F11F481E090E0EC
:1025F000882309F044C0262F30E0F901EE0FFF1FB9
:10260000E20FF31FDF01AA0FBB1FA851BE4F1196A7
:102610008C911197181799F58C91781781F5EE0F19
:10262000FF1FE651FE4F8081882349F513968D9157
:102630009C9114978417950718F0841B950B02C082
:102640008C0F9D1F883C9105D0F48091E5018F701F
:1026500080618093E501F901EE0FFF1FE20FF31F88
:10266000EE0FFF1FE351FE4F80818F7080618083EA
:1026700080EE91E00E9449100E949D1205C06F5F9C
:102680006770601709F0A8CFDF91CF911F910F916C
:102690000895DF92EF92FF920F931F93DF93CF93F2
:1026A000CDB7DEB76B970FB6F894DEBF0FBECDBFC8
:1026B0008C01DC011296DC9012974C9111965C9182
:1026C00011971396ED90FC9014972091E3013091AF
:1026D000E4016091E1017091E0012115310509F4F7
:1026E000DBC16F3F09F003C27F3F09F000C2D4C1D4
:1026F000E216F30640F0C701821B930B883C91055C
:1027000008F0EEC008C0209530952E0D3F1D283CE6
:10271000310508F0E5C08091E501807F09F095C0A2
:102720006F3F09F0EAC17F3F09F0E7C115C0741798
:1027300099F4DD2089F48091E5018F7080618093A8
:10274000E5010E94BE1280EE91E00E944910809146
:10275000E501F8018583BCC1FD82EC825A8349837F
:10276000DB82DE011696FE01319685E001900D9226
:102770008150E1F76885DE011B96FE01369685E003
:1027800001900D928150E1F72C853B858E859F85C8
:10279000892B09F451C02F3F09F0B3C13F3F09F025
:1027A000B0C14AC0FD82EC825A834983DB82DE01DC
:1027B0001B96FE01319685E001900D928150E1F764
:1027C000FC847B856D858091E7019091E6011FC0B7
:1027D000282F30E0F901EE0FFF1FE20FF31FDF019A
:1027E000AA0FBB1FA851BE4F11968C911197F816D6
:1027F00051F48C91781739F4EE0FFF1FE651FE4F1C
:1028000080816817C9F42F5F3F4F822F8770891727
:10281000F9F68DC19F7059F0442349F459C19F7056
:1028200031F0D80115968C91807F09F451C1405E3A
:10283000483008F44DC148C1DD2009F449C18091F8
:10284000E50181608093E50143C16F3F09F05DC1FF
:102850007F3F09F05AC114C0741791F4DD2081F450
:102860008091E501F8018583C8010E944910A0EE1E
:10287000B1E0F80186E001900D928150E1F720C1AE
:102880005A83498389819A810E94210F882309F400
:102890001BC1DD2009F418C13091E501832F829519
:1028A0008F7090E002979CF09091E1012091E001FF
:1028B000FE01709686E0DF011D928A95E9F7998BFB
:1028C000288BFC8AEB8A3D8BCF010E944910A0EE39
:1028D000B1E0F80186E001900D928150E1F7EEC081
:1028E0008091E501807FA9F47E2DFD82EC825A83E0
:1028F0004983DB826D2D8D810E94020F00EE11E075
:10290000C8010E94491086E0F80111928A95E9F702
:10291000C0C06F3F09F0FDC07F3F09F0FAC014C08E
:10292000741791F4DD2081F48091E501D8011596AA
:102930008C93C8010E944910E0EEF1E086E0DF01CF
:102940001D928A95E9F7BEC05A83498389819A818D
:102950000E94210F882309F4B7C0DD2009F4B4C018
:102960003091E501832F82958F7090E002979CF063
:102970009091E1012091E001FE01769686E0DF0171
:102980001D928A95E9F79F8B2E8BFA8EE98E3B8FED
:10299000CF010E944910A0EEB1E0F80186E001905D
:1029A0000D928150E1F78AC06F3F09F0B6C07F3FBA
:1029B00009F0B3C071C0E216F30640F0C701821BF4
:1029C000930B883C910508F053C008C020953095C2
:1029D0002E0D3F1D283C310508F04AC0DD2009F4CA
:1029E00073C06F3F09F09FC07F3F09F09CC029C0B2
:1029F000741739F59091E50190FD1AC0892F8295E1
:102A00008F70B1F0F80195838F3031F08F5F829530
:102A1000807F9F70982B9583C8010E944910A0EE7B
:102A2000B1E0F80186E001900D928150E1F748C0D5
:102A3000A0EEB1E0F80186E001900D928150E1F73F
:102A400041C05A83498389819A810E94210F88233A
:102A500049F0A0EEB1E0F80186E001900D928150BE
:102A6000E1F72CC08091E50181608093E5012CC0E5
:102A70007E2DFD82EC825A834983DB826D2D8D8110
:102A80000E94020FE0EEF1E086E0DF011D928A95E0
:102A9000E9F70E94BE121CC0DD20B1F05A834983C1
:102AA00089819A810E94210F882371F0A0EEB1E004
:102AB000F80186E001900D928150E1F70E94CD125D
:102AC0000E94BE1281E005C0C8010E944910FACFE1
:102AD00080E06B960FB6F894DEBF0FBECDBFCF91EE
:102AE000DF911F910F91FF90EF90DF9008958091FB
:102AF000E201882309F458CFFBCD651709F02CCEED
:102B000016CE613009F498CE4DCE651709F0B8CED7
:102B1000A3CE651709F018CF03CF8091E201882377
:102B200009F0BACF48CF651709F08BCF61CF5A8330
:102B3000498389819A810E94E616482F892F8295C0
:102B40008F70282F30E0223031050CF463CE243012
:102B500031050CF0B9CF63CE0F931F93DF93CF9362
:102B6000CDB7DEB72C970FB6F894DEBF0FBECDBF42
:102B70004F83588769877A878B879C878E01095F87
:102B80001F4FC8010E9449138823D9F028853F812F
:102B90008A859B85892B09F46BC02F3F49F480E01F
:102BA00090E03F3F11F481E090E0882309F060C09D
:102BB0004F81588569857A858B859C850E94110F88
:102BC00057C0DE011196F80186E001900D92815008
:102BD000E1F7F981EA814C815D814115510509F4E4
:102BE00047C0EF3F09F04CC0FF3F09F049C040C06B
:102BF000F983EA835D834C83F901EE0FFF1FE20F37
:102C0000F31FEE0FFF1FE851FE4FDE01119686E025
:102C10000D9001928150E1F76093E6010E949D12B0
:102C200027C0919FC001112488519E4F0E944913D3
:102C3000882309F445C08091E70190E0FC01EE0F84
:102C4000FF1FE80FF91FEE0FFF1FE851FE4F4081F5
:102C5000518162817381848195810E94110F8091DD
:102C6000E70190E00196877090708093E70101C0C2
:102C700016E09091E7018091E601981791F620C047
:102C80008091E601282F30E02F5F3F4FB901677038
:102C90007070215030408091E70190E0681779070B
:102CA00009F0A6CF0E945D0F1092E6011092E70195
:102CB000E0EEF1E086E0DF011D928A95E9F7D8CFDA
:102CC0002C960FB6F894DEBF0FBECDBFCF91DF912B
:102CD0001F910F910895CF92DF92EF92FF921F9371
:102CE000CF93DF93EC01009709F466C010E090EAFF
:102CF000C92E9FE0D92E81E0E82EF12CFE0121960D
:102D00009491943748F4943008F044C0913079F0AD
:102D1000923009F051C01BC0953709F437C0953780
:102D200050F1892F8458803708F046C037C0FE0123
:102D300021969491892F805E883060F597708E2D52
:102D400001C0880F9A95EAF70E946C180FC0FE0127
:102D500021969491892F805E883058F497708E2D3B
:102D600001C0880F9A95EAF70E9472180E94911884
:102D700019C0892F15C0FE01249104C0C601019716
:102D8000F1F721502223D1F721960CC0FE012196A4
:102D9000149108C0892F0E949B0F04C0892F8F7740
:102DA0000E94700F212F04C0C6010197F1F7215036
:102DB000222309F4A3CFF8CFDF91CF911F91FF9089
:102DC000EF90DF90CF90089508950895CF92DF920D
:102DD000EF92FF920F931F93CF93DF936C01E090DC
:102DE0001802F090190200911A0210911B028091B2
:102DF0001C0290911D02A0911E02B0911F02E82AB0
:102E0000F92A0A2B1B2BCFE1D0E0D801C7010C2EE9
:102E100004C0B695A795979587950A94D2F78170C7
:102E20009070892B41F08C2FB6010E946B199C0188
:102E30008130910551F421978FEFCF3FD80729F7C3
:102E400080E0B6010E946B199C01822FDF91CF9127
:102E50001F910F91FF90EF90DF90CF9008956093B6
:102E60001C0270931D0280931E0290931F020E9409
:102E70004E0F08959B01AC0160911C0270911D02E0
:102E800080911E0290911F02622773278427952745
:102E90000E942F1708959B01AC0160911C02709154
:102EA0001D0280911E0290911F02622373238423CE
:102EB00095230E942F1708959B01AC0160911C027D
:102EC00070911D0280911E0290911F02622B732B44
:102ED000842B952B0E942F17089521E030E040E0CD
:102EE00050E004C0220F331F441F551F8A95D2F7AC
:102EF00080911C0290911D02A0911E02B0911F02B0
:102F0000282739274A275B27CA01B9010E942F17B2
:102F1000089521E030E040E050E004C0220F331F6C
:102F2000441F551F8A95D2F72095309540955095AE
:102F300080911C0290911D02A0911E02B0911F026F
:102F4000282339234A235B23CA01B9010E942F1782
:102F5000089521E030E040E050E004C0220F331F2C
:102F6000441F551F8A95D2F780911C0290911D0233
:102F7000A0911E02B0911F02282B392B4A2B5B2BEC
:102F8000CA01B9010E942F17089521E030E040E006
:102F900050E004C0220F331F441F551F8A95D2F7FB
:102FA000CA01B9010E942F17089560E070E080E027
:102FB00090E00E942F1708956093180270931902F1
:102FC00080931A0290931B020E944E0F08959B015A
:102FD000AC01609118027091190280911A029091CF
:102FE0001B0262277327842795270E94DC17089508
:102FF0009B01AC01609118027091190280911A0234
:1030000090911B0262237323842395230E94DC1773
:1030100008959B01AC016091180270911902809192
:103020001A0290911B02622B732B842B952B0E940A
:10303000DC1708950E94DC170895382FA0910C0129
:10304000B0910D01FD0120E08FEF9281931791F077
:103050008F3F19F4992309F4822F2F5F3196263080
:10306000A1F78F3F39F0992787FD9095A80FB91FD9
:1030700012963C930895982F20E030E0E0910C01E7
:10308000F0910D01E20FF31F8281891709F412827A
:103090002F5F3F4F2630310589F7089581E090E09A
:1030A000E0910C01F0910D01E80FF91F10820196DB
:1030B00088309105A9F7089590912802982B909354
:1030C00028020895809590912802982390932802D1
:1030D000089510922802089590912A02982B9093B7
:1030E0002A020895809590912A02982390932A02AB
:1030F000089510922A02089580932902089510924B
:1031000029020895E0910C01F0910D0191E020E079
:10311000818181112F5F9F5F31969830C9F7822F8F
:103120000895E0910C01F0910D01809128028083B7
:10313000E0910C01F0910D01808190912A02892B80
:10314000808390912902992369F0E0910C01F0911C
:103150000D018081892B80830E948218882311F0C1
:103160000E947F1880910C0190910D010E94E10D49
:10317000089580E090E008950895282F8D3B50F445
:10318000883A28F5853AB0F4843080F4813009F02B
:103190009EC08CC0883E30F4803E40F48F3B09F0E6
:1031A00096C087C0803F08F492C07DC0822F90E017
:1031B0009C018FC0853A19F421E830E48AC0863A30
:1031C00019F023E830E485C022E830E482C0883A70
:1031D00019F422EE34E47DC0893A19F429EE34E47E
:1031E00078C08A3A19F42AEE34E473C08B3A19F4A1
:1031F00025EB34E46EC08C3A19F426EB34E469C054
:103200008B3B19F423EB34E464C08C3B19F424EBBE
:1032100034E45FC08D3A19F427EB34E45AC0803BA4
:1032200019F42CEC34E455C08E3A19F42DEC34E446
:1032300050C08F3A19F423E835E44BC0813B19F4B0
:103240002AE835E446C0823B19F422E935E441C05E
:10325000833B19F424E935E43CC0843B19F421E2B2
:1032600036E437C0853B19F423E236E432C0863BAE
:1032700019F424E236E42DC0873B19F425E236E444
:1032800028C0883B19F426E236E423C0893B19F4B0
:1032900027E236E41EC08A3B19F020E034E419C06E
:1032A0002AE236E416C030E0306513C021E030E099
:1032B00010C00E945D0F84EF91E020E931E0F90138
:1032C0003197F1F70197D9F70E94B11A02C020E0B7
:1032D00030E0C90108950E948D04803EB0F4803C26
:1032E00020F5813309F460C0823338F4893209F45F
:1032F00053C08A3209F067C05CC08933C9F0823894
:10330000B9F0853309F05FC042C0833E29F1843EA5
:1033100030F4803EA1F0823E09F055C018C0863ED0
:1033200029F1873E09F04FC026C00E94A8040895E5
:103330009091320290FD09C091FD07C041C080917B
:10334000320280FF02C089E33BC080EE39C0809129
:10335000320282FD07C004C08091320282FF02C0A7
:1033600082EE2EC084FD0FC083EE2AC0809132020F
:1033700083FD07C004C08091320283FF02C086EE45
:103380001FC084FF02C080E01BC087EE19C080917F
:10339000320285FF05C006C08091320285FF02C05F
:1033A00085E30EC089E20CC08091320286FF05C021
:1033B00006C08091320286FF02C081E301C08AE22A
:1033C0000E94BD1808950E94BD180895909395011C
:1033D000809394010895282F22952F708295807FE5
:1033E000282B30E0C9018C7C907095958795959538
:1033F000879523733070220F331F220F331F822BC8
:10340000282F30E0C9018A7A9070959587952575A7
:103410003070220F331F822B089580913702843041
:1034200009F110922C0220E488E190E00FB6F894A4
:10343000A895809360000FBE2093600083B7817FC2
:10344000846083BF83B7816083BF7894889583B796
:103450008E7F83BF88E10FB6F8948093600010924E
:1034600060000FBE0895089508951F920F920FB641
:103470000F9211248F939F93AF93BF9380912C024F
:10348000882399F480912D0290912E02A0912F0211
:10349000B09130024196A11DB11D80932D029093F1
:1034A0002E02A0932F02B0933002BF91AF919F9153
:1034B0008F910F900FBE0F901F9018950E945D0F77
:1034C00008951F930E94331A0E94F2040E94341A36
:1034D00010E0812F0E94EC04882311F081E004C0E9
:1034E0001F5F1231B1F780E01F91089582E084BD23
:1034F00093E095BD9AEF97BD80936E0008958FB7C6
:10350000F89420912D0230912E0240912F0250917B
:1035100030028FBFC90108951F920F920FB60F920C
:1035200011248F939F93AF93BF9380912D0290911D
:103530002E02A0912F02B09130020196A11DB11D63
:1035400080932D0290932E02A0932F02B09330020D
:10355000BF91AF919F918F910F900FBE0F901F90D1
:1035600018950E94CC0AF89480E29EE420E931E0AC
:10357000F9013197F1F70197D9F787E090EBA7E0D0
:10358000B0EB8093400290934102A0934202B0932B
:1035900043022CE088E190E00FB6F894A895809360
:1035A00060000FBE20936000FFCFEF92FF920F9359
:1035B0001F93CF93DF93082F10E0812F0E94EC041C
:1035C000C0E0D0E0E82EFF24C7010C2E02C0959584
:1035D00087950A94E2F780FF09C080E06C2F712F75
:1035E0000E948D04081711F481E008C02196C830AC
:1035F000D10551F71F5F123101F780E0DF91CF91C4
:103600001F910F91FF90EF9008951F93182F8CE258
:103610000E94D51A882319F0812F0E94D51A1F9174
:1036200008951F93CF93DF930E94801C882311F489
:103630000E948B1C84E193E00E94EB0314E6C0E43B
:10364000DCE905C00E94F204CE010197F1F71150A8
:10365000C8F78DE093E00E94EB0389E20E94051B0E
:10366000882309F028C18AE20E94051B882311F0F3
:103670000E948B1C85E00E94051B882311F00E948C
:10368000B11A0E947B1C80932B0287E00E94051BCD
:103690008823B9F18BE10E94051B882349F09091A2
:1036A0002B02892F869580958170880F9D7F26C07B
:1036B0008EE00E94051B882359F090912B02892FE0
:1036C0008695869580958170880F880F9B7F16C0A0
:1036D00080E10E94051B90912B02882359F0892FCD
:1036E00086958695869580958170880F880F880FBE
:1036F000977F04C0892F809581709E7F982B90932F
:103700002B0280912B020E946B1C0E94711C8093E3
:10371000320280EE0E94051B882349F0809132021C
:10372000982F909591708E7F892B8093320289E338
:103730000E94051B882359F090913202892F8695AB
:1037400080958170880F9D7F982B9093320282EE36
:103750000E94051B882369F090913202892F86957B
:10376000869580958170880F880F9B7F982B90930A
:10377000320286EE0E94051B882379F09091320276
:10378000892F86958695869580958170880F880FFC
:10379000880F977F982B9093320283EE0E94051B2F
:1037A000882369F090913202892F82958F708095DD
:1037B00081708295807F9F7E982B9093320285E363
:1037C0000E94051B882379F090913202892F8295FF
:1037D00086958770809581708295880F807E9F7D09
:1037E000982B9093320281E30E94051B882389F075
:1037F00090913202892F8295869586958370809567
:1038000081708295880F880F807C9F7B982B909386
:10381000320281E10E94051B882379F080913202F7
:10382000982F991F9927991F21E0922797959927FB
:1038300097958F77892B80933202809132020E9474
:103840005F1C87E20E94051B182F8EE10E94051B5A
:10385000811112608FE10E94051B8111146080E2CA
:103860000E94051B8111186081E20E94051B8111D5
:10387000106182E20E94051B8111106283E20E94A6
:10388000051B8111106484E20E94051B81111068E0
:10389000112341F0812F0E94651C612F70E080E0B0
:1038A00090E007C00E94761C90E0A0E0B0E0BC0170
:1038B000CD010E941A18DF91CF911F910895682FB2
:1038C00084E090E00E9466200895682F83E090E0F5
:1038D0000E9466200895682F82E090E00E94662092
:1038E000089584E090E00E945820089583E090E0DD
:1038F0000E945820089582E090E00E945820089588
:1039000080E090E00E94602020E08D5E9E4F09F4F0
:1039100021E0822F089580E090E06DEE7EEF0E941E
:10392000742082E090E060E00E94662083E090E0F6
:1039300060E00E94662084E090E060E00E946620E3
:1039400085E090E060E00E946620089580E00895A0
:1039500080E008958BE097E00E94EB0308951F93A9
:10396000182F00D000D0EDB7FEB7319686E297E071
:10397000ADB7BEB712969C938E93119712831382A4
:103980000E9484040F900F900F900F9061E070E000
:1039900080E090E004C0660F771F881F991F1A957A
:1039A000D2F70E941A180E945D0F1F9108951F936D
:1039B000873238F58E3108F019C38E3009F473C29E
:1039C0008F3078F4873009F444C2883020F4863090
:1039D00009F012C31DC2883081F18B3009F00CC38D
:1039E00011C2863109F4A4C2873120F4803109F074
:1039F00003C36FC2893109F484C28B3109F0FCC260
:103A000037C2883309F4FEC1893350F4893209F48E
:103A1000EBC2853309F4E8C2873209F0EDC2E4C293
:103A2000833409F4E1C2843420F48A3308F4E4C214
:103A3000DFC2883409F0E0C2FAC180E295E00E945A
:103A4000EB038EE596E00E94EB030E94761C00D00B
:103A500000D0EDB7FEB731962BE536E0ADB7BEB777
:103A600012963C932E931197828313820E948404B2
:103A70000F900F900F900F9089E596E00E94EB0356
:103A80000E947B1C182F86E496E00E94EB0300D076
:103A900000D0EDB7FEB7319681E496E0ADB7BEB782
:103AA00012969C938E931197128313820E94840422
:103AB0000F900F900F900F908FE396E00E94EB0312
:103AC00085E396E00E94EB0300D000D0EDB7FEB78F
:103AD000319682E396E0ADB7BEB712969C938E9373
:103AE0001197812F8170828313820E9484040F902A
:103AF0000F900F900F9080E396E00E94EB0386E218
:103B000096E00E94EB0300D000D0EDB7FEB73196EF
:103B100083E296E0ADB7BEB712969C938E93119751
:103B2000812F86958170828313820E9484040F9076
:103B30000F900F900F9081E296E00E94EB0385E1D9
:103B400096E00E94EB0300D000D0EDB7FEB73196AF
:103B500082E196E0ADB7BEB712969C938E93119713
:103B600016951695812F8170828313820E9484049A
:103B70000F900F900F900F9080E196E00E94EB0362
:103B800087E096E00E94EB0300D000D0EDB7FEB7CF
:103B9000319684E096E0ADB7BEB712969C938E93B3
:103BA000119716951170128313820E9484040F904E
:103BB0000F900F900F9082E096E00E94EB030E941E
:103BC000711C182F8EEE95E00E94EB0300D000D000
:103BD000EDB7FEB7319689EE95E0ADB7BEB7129658
:103BE0009C938E931197128313820E9484040F90EA
:103BF0000F900F900F9087EE95E00E94EB038EECF4
:103C000095E00E94EB0300D000D0EDB7FEB73196EF
:103C10008BEC95E0ADB7BEB712969C938E9311973F
:103C2000812F8170828313820E9484040F900F90F1
:103C30000F900F9089EC95E00E94EB0382EB95E0EA
:103C40000E94EB0300D000D0EDB7FEB731968FEAAB
:103C500095E0ADB7BEB712969C938E931197812FC6
:103C600086958170828313820E9484040F900F9046
:103C70000F900F908DEA95E00E94EB038BE995E0A1
:103C80000E94EB0300D000D0EDB7FEB7319688E973
:103C900095E0ADB7BEB712969C938E931197812F86
:103CA000869586958170828313820E9484040F908A
:103CB0000F900F900F9086E995E00E94EB0384E847
:103CC00095E00E94EB0300D000D0EDB7FEB731962F
:103CD00081E895E0ADB7BEB712969C938E9311978D
:103CE000812F8695869586958170828313820E94A6
:103CF00084040F900F900F900F908FE795E00E9433
:103D0000EB0385E795E00E94EB0300D000D0EDB710
:103D1000FEB7319682E795E0ADB7BEB712969C9399
:103D20008E931197812F82958170828313820E94D6
:103D300084040F900F900F900F9080E795E00E9401
:103D4000EB038EE595E00E94EB0300D000D0EDB7C9
:103D5000FEB731968BE595E0ADB7BEB712969C9352
:103D60008E931197812F829586958170828313821D
:103D70000E9484040F900F900F900F9089E595E0BA
:103D80000E94EB038DE395E00E94EB0300D000D08E
:103D9000EDB7FEB731968AE395E0ADB7BEB71296A0
:103DA0009C938E9311971295169516951370812FEB
:103DB0008170828313820E9484040F900F900F9071
:103DC0000F9088E395E00E94EB0380E395E00E946A
:103DD000EB0300D000D0EDB7FEB731968DE295E051
:103DE000ADB7BEB712969C938E931197169512831A
:103DF00013820E9484040F900F900F900F908BE21B
:103E000095E002C08EE696E00E94EB0381E0F9C0E7
:103E100080912B02807F80932B020E94AA1C8CE150
:103E200095E00E94EB0381E080933102EAC00E949A
:103E30005D0F8BE095E00E94EB0380E197E220E9C3
:103E400031E0F9013197F1F70197D9F70E94B11AE2
:103E5000DDCF80912B0280FF08C08EEF94E00E949E
:103E6000EB0380912B02807F18C082EF94E010C09A
:103E700080912B02982F969590959170292F220F63
:103E80008D7F822B80932B02992351F085EE94E055
:103E90000E94EB0380912B02816080932B02B6CFAE
:103EA00087ED94E0B1CF80912B02982F969596954F
:103EB00090959170292F220F220F8B7F822B809358
:103EC0002B02992319F088EC94E0E2CF88EB94E080
:103ED0009BCF80912B02982F9695969596959095CD
:103EE0009170292F220F220F220F877F822B809320
:103EF0002B02992319F08CEA94E0CACF8FE994E061
:103F000083CF80E994E00E94EB038DE594E00E946A
:103F1000EB0380E294E00E94EB0383EF93E00E94C6
:103F2000EB038CEB93E00E94EB0381E993E06CCF11
:103F300083E893E00E94EB030E94A40D00D000D020
:103F4000EDB7FEB7319629E633E0ADB7BEB71296AE
:103F50003C932E931197828313820E948404EDB7C1
:103F6000FEB7319682E593E0ADB7BEB712969C934B
:103F70008E93119780910101828313820E948404A1
:103F8000EDB7FEB731968FE393E0ADB7BEB71296AB
:103F90009C938E9311978091BA01828313820E9421
:103FA000840420912D0230912E0240912F025091D5
:103FB000300200D08BE293E0EDB7FEB792838183AD
:103FC000ADB7BEB713962D933D934D935C93169763
:103FD0000E94840481E0EDB7FEB736960FB6F894E0
:103FE000FEBF0FBEEDBF0DC080E003C08D5101C00C
:103FF00089530E94AF1C0ACF89E293E00E94EB0331
:1040000080E01F9108951F93182F8091310288231B
:1040100019F08130E1F508C0E0910C01F0910D013B
:1040200080818232B1F507C0E0910C01F0910D0161
:104030008081823249F4812F0E94A61C8823D1F40A
:10404000812F0E94D71C26C0812F0E94A81C882384
:1040500089F4143191F0153118F41B3089F404C03F
:10406000193259F0183361F40E94AA1C8BE297E0D0
:104070000E94EB0381E090E00DC01092310204C079
:104080008FE297E00E94EB0380E090E003C0109283
:10409000310280E01F910895991B79E004C0991FB7
:1040A000961708F0961B881F7A95C9F78095089592
:1040B000F999FECF92BD81BDF89A992780B50895F0
:1040C000A8E1B0E042E050E00C947B20262FF99963
:1040D000FECF1FBA92BD81BD20BD0FB6F894FA9AEB
:1040E000F99A0FBE019608950E946620272F0C941E
:1040F0006720DC01CB01FC01F999FECF06C0F2BDBF
:10410000E1BDF89A319600B40D9241505040B8F795
:064110000895F894FFCFB2
:10411600080148061F074B06E906B30620022300DE
:10412600230026002600290029002900290029004D
:104136002900290029002F002F002F002F002F0013
:104146002F001080408001020408102040800102E8
:104156001020408000020406080A0C0E24002400E9
:10416600270027002A002A002A002A002A002A00FF
:104176002A002A00300030003000300030003000C5
:1041860025002500280028002B002B002B002B00E3
:104196002B002B002B002B003100310031003100A9
:0441A60031003100B3
:00000001FF
